:020000021000EC
:10000000E03F082095010100FB000100E100010034
:10001000090101001901010029010100000000008F
:10002000000000000000000000000000315401004A
:100030003901010000000000915401005901010044
:1000400079040100790401007904010079040100B8
:1000500079040100790401007904010079040100A8
:100060007904010079040100790401007904010098
:100070007904010079040100790401007904010088
:100080007904010079040100790401007904010078
:100090007904010079040100790401007904010068
:1000A0007904010079040100790401007904010058
:1000B0007904010079040100790401007904010048
:1000C00079040100790401007904010068700400DA
:1000D00000C007207C03000080C30720D01B000065
:1000E00004207146084203D0EFF3098000F0E2B922
:1000F000EFF3088000F0DEB9704708B5014801F061
:10010000DBFDFEE72B08040008B5024801F0D4FD32
:10011000FEE700BF3608040008B5024801F0CCFD38
:10012000FEE700BF4108040008B5024801F0C4FD25
:10013000FEE700BF4C08040008B5024801F0BCFD12
:10014000FEE700BF5908040008B5024801F0B4FDFD
:10015000FEE700BF6708040008B505F0BDF805F02C
:10016000B9F9BDE8084005F0CBB80B4610B5401A08
:100170005C1AA24203D9C45843F8044BF8E710BDF7
:100180000346002210B51C1AA14202D943F8042BE1
:10019000F9E710BD154800F033F8144800F033F8C3
:1001A000134C144DAC4209D3134DAC420ED254F84B
:1001B000080B54F8041CFFF7E3FFF6E794E803008C
:1001C0000C3454F8042CFFF7D0FFEBE726F096FF31
:1001D00000F072FA0AF092FB09F09AFE4FF4164012
:1001E00000F08AFB054801F067FDFEE7E03F0820CC
:1001F000CC000100D8000100E00001007B080400F1
:1002000080F30988704780F30888704780F311886D
:100210007047FFFFAA22034BC3F88C205522C3F876
:100220008C20704700C00F402DE9F04F00240C6077
:1002300014601C6040F2FF14DFF860A04FF4FA5520
:10024000002604FB055B06F1010CBBFBFCF8124F1A
:10025000A8F58625A5F50E75BD421AD96646202E4D
:10026000F1D1013C052CE9D10020BDE8F08FB9F5B2
:10027000807F4D46F2D005F10109B8FBF9FED64565
:10028000F5D886450C6016601D60F0D10120BDE8F0
:10029000F08F0325EFE700BF38320400A08601008D
:1002A00030B500242A4985B0D1F8803004AD23F060
:1002B000020345F8044D01940294C1F88030FFF721
:1002C000A9FFD1F8803023F00103C1F88030FFF797
:1002D000A1FFC1F80C41C1F88440FFF79BFF2B46FA
:1002E000C1F8044102AA01A94BF68030FFF79CFF38
:1002F00030B92B4602AA01A945F6C050FFF794FF7A
:10030000019B134963F30F04029B63F3174400231B
:10031000C1F80C31C1F88440FFF77CFF0123C1F81C
:100320008030FFF777FFD1F888305B01FBD5039B66
:10033000C1F804310323C1F88030FFF76BFF044A92
:10034000D2F8883013F0407FFAD005B030BD00BF3E
:1003500000C00F40244BD3F88820C2F30162032A67
:10036000D3F80C2102F003022DD1012A16D0022A63
:100370001ED0D3F888101D48D3F88820D3F8043154
:10038000C1F30E0101FB0000C2F307420132B0FBD2
:10039000F2F0DBB20133B0FBF3F07047D3F8881012
:1003A0001348D3F88820C1F30E01D3F80431E9E7EC
:1003B000D3F88800D3F88820C0F30E000130D3F8BA
:1003C00004310004E0E7D3F80401012AC0B200F1CF
:1003D000010303D0022A03D00648DCE70648DAE727
:1003E0004FF40040D7E700BF00C00F4000127A0072
:1003F00000366E0100093D00001BB70038B50D4600
:10040000044605F029F8094A01234DB1D2F8C40089
:10041000A3400343C2F8C430BDE8384005F02CB80F
:10042000D2F8C410A34021EA0303F3E700C00F4051
:100430002DE9F0414FEA40080E4605F00DF842461E
:100440000320002125F064F90A4F4246D7E9004510
:1004500024EA000425EA010506F00300002125F046
:1004600057F920432943C7E90001BDE8F04105F0F1
:1004700003B800BFA8C10F4008B504F02DFF094B19
:10048000094A1978094B1039C9B253F821309342FF
:1004900003D1074801F01FFCFEE79847BDE808407C
:1004A00004F02EBF04ED00E04901010000C0072068
:1004B000F4070400036888B000934368114A01936D
:1004C00083680293C36803930369049343690593A4
:1004D00083690693C36907930B4B9A64069ADA649F
:1004E000059A013A1A65079A5A654FF08043AA2285
:1004F0001A7200221A70009B019B029B039B049BB3
:1005000008B07047EFBEADDE00400240012110B5DB
:100510000F4B104C0846236002F0F8FE4FF0FF32FC
:1005200023689A614FF47A72DA6100221A620A4AE9
:100530005A6240F209225A615A6942F040025A61F5
:100540001822064B83F8022304221A6010BD00BF54
:100550000080004088C3072060E3160000E100E04F
:10056000084B10B51B68084C9A682188986889B2B6
:100570008242F9D80B46002242EA00021046194690
:1005800010BD00BF88C3072084C3072010B50446F0
:100590008EB006A802F042FA0A9B069A05930B9BBE
:1005A000074904930C9B204603930D9B0293099BE0
:1005B0000193089B0093079B28F0A2FE0EB010BD8C
:1005C000C508040010B5044C23681BB9012002F0D3
:1005D0001DFA2060206810BD80C3072038B52B4C61
:1005E000236825461A6812F0100F0ED010221A60E8
:1005F000FFF7E8FF2368D96A06F09CF82268936841
:1006000003F51C531033136238BD540707D5042279
:100610001A60FFF7D7FFBDE8384006F099B8D00759
:1006200007D501221A601A4A138801339BB213803E
:1006300038BD910715D502221A6004F07DFD02280D
:1006400009D006F025F82A689368D1690B4403F5B0
:100650007A73D36138BD2A68536923F00803536164
:10066000F1E712070ED50822AA211A604FF0804246
:100670001172552111729A6802F5B71202F558727B
:100680005A6238BD034828F0B3FBFEE788C3072051
:1006900084C30720A4080400014B1878704700BFEA
:1006A00098C3072003490B6803604B6843608B685D
:1006B000836070478CC3072030B585B002F0DEFF41
:1006C000684602F083FF7C4C009B2360019B6360C3
:1006D000029BA360FFF7E4FDFFF73CFE774BB0FB06
:1006E000F3F03C28764B00F2A480292880F0AB8000
:1006F000142800F2A5803A221A6008239822714932
:1007000000200B764B768B7681F820306E4B83F889
:10071000052383F8062383F8072383F80823902210
:1007200083F80A2383F80B2383F80C23702283F8C1
:100730000E2383F80F23582283F8122383F8132300
:1007400083F8142383F81523782283F81923A02231
:1007500083F8002383F8012383F8022383F803231B
:1007600083F8042383F8092383F80D2383F81023E7
:1007700083F8112383F8162383F8172383F81823AB
:1007800083F81A2383F81B2383F81C2383F81E2382
:1007900083F81F2383F8202383F81D2383F8212364
:1007A00083F82223CB6823F4E0631B041B0C43F083
:1007B000BF6343F40033CB60FFF728FD61B662B638
:1007C0004FF4164000F098F8404802F029FA4048EB
:1007D00002F02CFA00233F4C194620680222806860
:1007E00028F064FC0023206802221946406828F0A3
:1007F0005DFC02F035FA4FF08043374A304C5A60C6
:1008000003221A70AA221A7255221A72D4F8803161
:10081000324D13F0010F1FD0314800F0B5F801231D
:100820002B70D4F8803143F00103C4F8803105B057
:1008300030BD50280AD964280BD945F23A025BE74B
:1008400041F23A0258E742F23A0255E743F23A02DD
:1008500052E744F23A024FE7D4F880319B0709D5BA
:10086000204800F091F802232B70D4F8803143F037
:100870000203DAE7D4F8803113F0040319D01A4BDD
:100880009A6C1A4B9A4208D1052319482B7000F034
:100890007BF80022144B9A64C9E7042315482B7097
:1008A00000F072F8D4F8803143F00403C4F88031CA
:1008B000EFE72B70BBE700BF8CC3072040420F005F
:1008C00000C00F4000ED00E000E100E07109010010
:1008D0005909010060C10720C0C62D0098C3072038
:1008E0008A090400CD09040000400240EFBEADDEDD
:1008F000A7090400C409040010B50446FFF72AFD47
:100900002401B0FBF4F025F051F80022104B24F044
:1009100011FF25F049F9012184B20320FFF76EFD94
:1009200001210320FFF784FD0A4B1A6822F0F00230
:100930001A601A6842F050021A608022A3F5003350
:100940001A73220A1A710322E4B21C701A7310BDC2
:100950000000E03F00C00240034A1368DB07FCD5FB
:10096000024B1878704700BF14C0004000C0004020
:10097000034B044A187013685B06FCD501207047CE
:1009800000C0004014C0004008B5411E11F8010F1E
:1009900020B90A20BDE80840FFF7EABFFFF7E8FFEB
:1009A000F4E7FFFF2DE9F84F1C4F04468846002B63
:1009B00018BF1F46914672B369B3436882689A4272
:1009C0001CD305685D1919D2A900C06828F07CFA0B
:1009D000A668E0604FEA860AB5420ED9102002F000
:1009E00015F883461022002126F066FEE3680136E2
:1009F00043F80AB00AF1040AEEE76560A368E2680A
:100A0000591C52F823300A9AA160C3F800905F6025
:100A1000C3F80880DA60BDE8F88F00BFC025040085
:100A20002DE9F04F0C4693B080464FF0FF321F493E
:100A3000204603F0AFFA0025DFF87890DFF878A0C1
:100A4000DFF878B0D8F808309D4226D2D8F80C30BC
:100A500053F825707B681846019329F0BBFA2028CB
:100A6000019B14D902AE3A685146304628F048FC42
:100A70000A21304629F004FB864202D2594628F06A
:100A800019FD3146204603F0CFFA0135DAE73A681E
:100A90004946204603F0C8FAF7E74FF0FF32044911
:100AA000204603F08BFA13B0BDE8F08F620A040011
:100AB000950A0400890A0400760A0400A3090400C8
:100AC0002DE9F041054608460F46164600F03DFE6A
:100AD000002823DD0024AB689C421BD2EB6838461B
:100AE00053F82480D8F8001000F076FE80B1D8F8D2
:100AF00004305BB11A780C49002A18BF19464FF030
:100B0000FF323046BDE8F04103F058BA0649F6E737
:100B10000134E0E74FF0FF320449F2E7314628465E
:100B2000BDE8F041FFF77CBFE70904000B0A0400B1
:100B300038B50D460024284600F007FE844208DA46
:100B40002146284600F098FF0378202B01D001347D
:100B5000F1E72146284600F0E3FE2846BDE838408C
:100B6000014900F045BF00BFE51804002DE9F04F32
:100B70000C4691B0514906462046154600F058FFF4
:100B800020224F49204600F0AFFE074600284CD1F6
:100B90008146B368994556D34FF00009DFF82CB170
:100BA000B368994580F082802022F3680DEB020142
:100BB00053F8298003A800F0A1FDD8F8001003A87D
:100BC00001F00EF8002301AA594620460193029332
:100BD00000F0C4FD01A829F0FDF9012860D901A9A0
:100BE00003A800F06AFE8246002859D0D8F80020F9
:100BF00021463046FFF79CFFD8F80830D8F80C2083
:100C000029462046984760B94FF0FF322D492846C3
:100C100003F0D4F94FF0FF32D8F80410284603F05F
:100C2000CDF903A800F07EFD35E0254A2146304687
:100C3000FFF77EFF2A4621463046FFF741FF384640
:100C400011B0BDE8F08FF368202253F829802046C8
:100C5000D8F8001000F048FE8246F0B1D8F8002025
:100C600021463046FFF764FFD8F80830D8F80C204A
:100C700029462046984707460028E0D14FF0FF322A
:100C80001049284603F09AF94FF0FF32D8F80410C3
:100C9000284603F093F95746D1E709F1010978E7AF
:100CA00003A800F03FFD09F1010979E74FF0FF3299
:100CB0000549284603F082F9C1E700BF300A040065
:100CC000330A0400380A04000B0A04005D0A040019
:100CD000002337B502AC44F8043D0D4D40B903463E
:100CE00002462146286803F033FC019803B030BD6A
:100CF0000A222146286803F02BFC03460028F4D181
:100D000004490A8801320A804FF0FF32E9E700BF48
:100D1000A0C307209AC30720F0B50024ADF50D7DD0
:100D20000D4607460294FFF71BFC4FF47A7200232E
:100D300025F0C4FA4FF409720646214603A826F0AE
:100D4000BBFC002D38D012221C4903A806F0CAFFB4
:100D5000044668BB069903A807F040FA044630B978
:100D600002AB2A46394603A807F00BF9044603A84C
:100D700007F022FAFFF7F4FB4FF47A72002325F014
:100D80009DFA0F4B801B1A889042029A88BF1880E8
:100D900095420CBF0126002606D0059B21460093F4
:100DA00008482B4627F072FF30460DF50D7DF0BD4B
:100DB000054827F06BFFDDE72C46DBE7270B040037
:100DC000A4C30720450B0400310B04002F4B2DE971
:100DD000F74F1D68DFF8BC902E46DFF8BCA005F584
:100DE0008068002302AF47F8043D4EF66022394682
:100DF000D9F8000003F0ACFB08B1019B2BB9711BC3
:100E00002846FFF789FF2E46EBE7D9F8000003F0EC
:100E10006DFCBAF80030019C0130984288BFAAF8F6
:100E20000000204629F0D6F80A230021235400F1BF
:100E3000010B019A06EB0B0402F80B10A045019977
:100E40001FD8A8EB0602304626F011FCA4EB0804DC
:100E50004FF480612846FFF75FFF3CB10199ABEB8F
:100E6000040B22465944284626F001FC2C4408482D
:100E700000234FF0FF323946006803F061FA26463E
:100E8000AFE75A46304626F0F2FBF0E7BCC3072036
:100E9000A0C30720B8C307209CC3072073B502ACCA
:100EA00044F8040D0D4649B100234FF0FF322146AE
:100EB0000A48006803F044FA02B070BD064629F003
:100EC00089F80A233354019B411C5D540198FFF7B4
:100ED00023FF2B462A4621460148EAE7B8C30720EC
:100EE000A0C3072007B504F027F902280CD1084B4E
:100EF0001B684BB10023074802A941F8043D4FF09D
:100F0000FF32006803F01CFA03B05DF804FB00BF79
:100F1000BCC30720B8C3072003289ABF024B53F86D
:100F200020000020704700BFA8C30720014B18888D
:100F3000704700BF9AC30720014B1888704700BF55
:100F4000A4C30720014B1888704700BF9CC307202B
:100F50002DE9FF412B4C80462568002D4AD14FF4E6
:100F60008060039526F00AFB274E2060A8B9206810
:100F7000002842D1336863B10A24002303A91A462A
:100F8000306803F0E5FA10B1039826F0FFFA013C4F
:100F9000F3D11E4827F02CFF2CE02A4604210A201A
:100FA00003F0ACF91A4F2A46386004210A2003F0F6
:100FB000A5F93B683060002BD9D00028D7D00A258E
:100FC000962026F0DBFA03900028D0D0002303A956
:100FD0001A46306803F0B4F9013DF1D10195CDF81E
:100FE00000802B464FF4C0720A490B4803F018FCEE
:100FF0000028BCD004B0BDE8F08126F0C7FA002379
:101000002360B7E7BCC30720A0C30720DB0A0400A6
:10101000B8C30720D40A0400CD0D0100012303FA50
:1010200000F0044B1A7811B110431870704722EA8F
:101030000000FAE78CC007202DE9F04F9A46454B97
:1010400097B01B6806460C461546002B7CD00FA8AF
:1010500002F0BCFAFFF784FA4FF47A72002325F00D
:101060002DF9814604F068F83B4B821ED2F100084E
:1010700016AF48EB02080FCB07E90F00002C66D033
:101080002F21204628F0FCFF20B95C21204628F0C3
:10109000F7FF00B1441CDFF8D4B04046002D08BF74
:1010A0005D46FFF715FE9DF83E1095F800C001F073
:1010B0001F0E9DF83D109DF8412001F03F010B915E
:1010C0009DF83C109DF8403001F03F010C9116A9AD
:1010D00001EB860151F8101C03F01F030D911F490D
:1010E000CDF800E0BCF1000F08BF594607910D99FB
:1010F00002F00F0204910C99CDF820A002910B99F7
:101100000695019105941649CDF80C90074628F0F4
:10111000F7F821ABC0F19501209A38440E932AF0DC
:10112000A3FB104A414652F826303846013342F8B4
:101130002630FFF7B3FE0C4B1B7843FA06F6F30795
:1011400002D5384627F054FE17B0BDE8F08F074CA3
:10115000A1E700BFBCC30720C40A0400960C04002A
:10116000000B0400A8C307208CC00720C025040082
:101170000FB40E4B37B51B6893B103F0DDFF831E30
:101180005C425C412046FFF7A3FD054607AB952175
:10119000069A01932AF068FB21462846FFF77EFE57
:1011A00003B0BDE8304004B0704700BFBCC30720A7
:1011B000002313B50C4602A941F8043D006803F072
:1011C00093F9019B1BB1236843F0010323600120C5
:1011D00002B010BD30B5044685B001A80D4602F03E
:1011E000F5F99DF80630227903F01F039A421BD1CE
:1011F0009DF80530627903F03F039A4214D19DF8BF
:101200000430A27903F03F039A420DD1002304A9D0
:1012100041F8103D2368186803F066F9009B1BB184
:101220002B6843F001032B60012005B030BDFFFFA8
:1012300030B50025234A87B01378234C43F00103CF
:10124000137003A8029502F0C1F92B46009502AA7B
:101250001E49206800F01BFD9DF80C3013F03F0381
:101260001BD1009302AA1949606800F010FD9DF897
:101270000D3013F03F0310D1009302AA1349A06868
:1012800000F005FD9DF80E3013F01F0305D100930B
:1012900002AA0E49E06800F0FAFC00230C48009313
:1012A00002AA0C49006800F0F2FC029B3BB14FF02F
:1012B0008052094B1A60BFF34F8FBFF36F8F07B097
:1012C00030BD00BF00400240C0C30720B111010083
:1012D000D0C30720D511010004ED00E001207047C4
:1012E0000120704701207047936810B4013B002B28
:1012F000936008DA9469A34202DBCBB20A2B02D1D5
:1013000010BC2AF0EDBA1368581C10601970C8B2EE
:1013100010BC70470A4B70B51B780D467BB1094E67
:10132000441E14F8011F21B130688268FFF7DCFF0A
:10133000F7E725B12846BDE8704027F059BD70BDDC
:10134000D8C3072060C1072070B50C460B4E451E60
:1013500015F8011F21B130688268FFF7C5FFF7E774
:1013600024B12046BDE8704027F042BD034B0A215E
:10137000BDE8704018688268FFF7B6BF60C10720FB
:101380003F4B2DE9F7431A68036904469A4236D168
:1013900000273D4600213B48FFF7BCFF3A49606A01
:1013A000FFF7B8FF00213948FFF7B4FF384BDFF8EB
:1013B000EC901E688EB1D6F800800137D8F8003066
:1013C00040461B69766898470028F3D14946D8F80B
:1013D0002400FFF7B9FF0125ECE755B92D4EAF42C8
:1013E0000DD0002330681A46194602F0A9FF0135D6
:1013F000F5E731462848FFF7A7FF03F03FFB00233E
:1014000024484FF0FF321946006803F0A1F803F0BA
:101410004DFB02AE46F8040D03F048FB0546DFF82D
:101420008080606818B1E16803F06BF9A060236800
:10143000A16A5B6920469847074630B9606A414611
:10144000FFF782FF384603F0D5FCA3690133A3619F
:10145000236A1BB103F02AFB854206D3E169002908
:10146000DFD0304603F026FCDBE703F01FFB256AE4
:101470000544206903F050FE80006061EEE700BF84
:10148000E8C30720660D04006A0D0400970D0400F0
:10149000D4C30720E4C30720DD0D0400C40D0400FD
:1014A000050E04002DE9F74F594D8046296839B9DA
:1014B0005848FFF749FF0124204603B0BDE8F08FEC
:1014C0004FF000094C4600215348FFF723FFDFF897
:1014D00078B12E68DFF874A1CEB13768766807F16D
:1014E0001003FA6A019397F83030C2F38F02009329
:1014F000796A3B46584609F1010903F091F9002841
:10150000EAD15146786AFFF71FFF0124E4E731462C
:10151000484602F00CFF414B186020B93146404864
:10152000FFF712FF012400213E48FFF7F3FEDFF82A
:1015300020912E686EB1376876683B6838469B68A4
:1015400098470028F6D14946786AFFF7FDFE012446
:10155000F0E731463448FFF7DDFE2F6887B3C0CF90
:1015600033683046DB68984700284CD0B8F1000F4C
:1015700023D04FF001094FF0020A706A01F0C8F958
:10158000042306F1140229498DE80006834600F081
:10159000B1FD8DE8000600284FF0040306F11802A3
:1015A0002349584608BF4C4600F0A4FD28B92149FC
:1015B000706AFFF7C9FE0124D0E7002CCED0F6E711
:1015C00039461D48FFF7A6FE1C491D4825F064FB5F
:1015D000064620B100F098FC304625F0CDF80021F9
:1015E0002A680D46174B186842B117685268FE6AA0
:1015F000B542F9D2386935460121F5E700293FF4B3
:101600005BAF186058E7B8F1000FD0D04446B0E7A0
:10161000D4C30720390C0400670C0400E4C307207E
:10162000990C0400BC0C0400EB0C0400100D040029
:101630001B0D0400250D0400490D0400BB4A0400E5
:1016400073310400E8C30720811301007E0C0400FD
:10165000D70C040010B5044638B1082001F0D6F9C3
:10166000024B04601A681860426010BDD4C30720A2
:101670000B4B10B518700846FFF714FF044658B915
:1016800001460848FFF746FE03F0C6F92146064822
:10169000BDE81040FFF758BE00210448F8E700BF3E
:1016A000D8C30720C40B0400DF0B0400030C0400A4
:1016B00070B50B4D4FF47A76056000254560856066
:1016C000056145618561C5614EF6602541620499F9
:1016D000C66005628162C26280F8303070BD00BFB2
:1016E000AC0B0400044B1A6890423ABF5B6853F895
:1016F00020000020704700BFDCC3072010B5012385
:10170000044623700023002AD4BF1A4602F1FF3298
:10171000A1600846E36023616260002125F0CCFFF0
:10172000204610BD38B50446806818B123780BB93F
:1017300025F02CFFE56835B12846FFF7F3FF1421AB
:1017400028460BF062FB204638BD806828F042BC7A
:1017500040687047002283681A7070470EB403B562
:1017600003AA52F8041B806801922AF0AFF802B075
:101770005DF804EB03B070470CB4F7B5002408AB78
:1017800002AD53F8047B45F8044D2A4680680E46A6
:10179000009329F056FB78B13B1B002B0CDD009B1E
:1017A0001A1D1B68009203B118602A4631460020BA
:1017B00029F047FB0134EEE7204603B0BDE8F040D6
:1017C00002B0704708B50B468168184627F066FEE0
:1017D000B0FA80F0400908BD08B5806827F023FE04
:1017E000B0FA80F0400908BD2DE9F74F0F788A461E
:1017F000A7B34FF0FF35866833788BB333787BB36C
:10180000384629F097FC0146304627F039FE38B9B2
:10181000384629F09CFC0146304627F031FEE8B1FD
:101820000446851B0AF10108461C14F8010FC14645
:1018300088B198F800B008F10108BBF1000F0AD098
:1018400029F078FC0190584629F074FC019B8342F2
:10185000EBD04FF0FF3599F80030CEE74FF0FF3571
:10186000284603B0BDE8F08F08B5FFF7BDFF013093
:1018700018BF012008BD10B58468204628F013FC6D
:1018800008B1001B10BD4FF0FF3010BD70B504460D
:1018900008460D4628F09EFB06462046FFF755FFFA
:1018A000864208DC32462946A06828F0C2FBB0FA1E
:1018B00080F0400970BD002070BD70B50546084637
:1018C0000C4628F087FB06462846FFF73EFF864277
:1018D00008DC3246A968204628F084FBB0FA80F084
:1018E000400970BD002070BDF8B5044608460E469C
:1018F000174628F06FFB05462046FFF726FF854276
:101900000CDCA368314620465D5DFFF7D6FF30B1A1
:10191000BD4204D0B5FA85F04009F8BD0020F8BDFD
:1019200038B50C460546FFF710FF002C024609DDCE
:10193000A04207DBA868121B0132011925F0A2FEA4
:10194000012038BD002038BD38B50C460546FFF7EC
:10195000FCFE0023A042A1BFAA68001B1354012073
:10196000B8BF184638BD70B50D4606461446FFF799
:10197000ECFE002D11DBA8420FDD002C0DDD421B1B
:101980009442A8BF1446B068121B2C4401190132BE
:10199000284425F077FE012070BD002070BD70B591
:1019A00005460E46FFF767FF431C044609D0304644
:1019B00028F010FB214602462846BDE87040FFF79C
:1019C000D2BF002070BDF8B585680F462B460024B5
:1019D000591B13F8016B3EB1BC4203D09642F7D1BC
:1019E0000134F5E7FFF79CFF201C18BF0120F8BD6C
:1019F000F8B506460D46FFF7A8FE00240746BC4290
:101A00000EDA284628F0E6FA2B465A1B904207DDEC
:101A1000B16813F8012B095D9142F6D10134EEE76C
:101A20002CB121463046BDE8F840FFF779BFF8BD3C
:101A3000F8B5054608460C4628F0CCFA0746284675
:101A4000FFF783FE0026013800280DDB23461A1B12
:101A5000974209DDAA6813F801EB1118125C724570
:101A6000F5D10E700138EFE7F8BDFFF7ABBE806827
:101A70007047806824F0D0BD38B50C460546FFF7A6
:101A800064FEA042A868C8BF001938BD037870B5CD
:101A90000546FBB9B1B10131102491FBF4F4AE68F5
:101AA000013424016C607EB9204625F067FDA860F2
:101AB00018B12246314625F0FFFDA868003018BF56
:101AC000012070BD0421E7E7611C304627F0FCF9D6
:101AD000A860F2E7002070BD0022027042608260C0
:101AE000C2600261FFF7D2BF10B50446FFF7F4FFF2
:101AF000204610BD43688B4201DAFFF7C7BF0120C3
:101B000070470EB4F3B50646002407AB53F8047BC8
:101B10000093B06880B17568009B01353A4629464C
:101B2000019329F0A1FE8542044605DC411C3046A4
:101B3000FFF7E0FF0028ECD1204602B0BDE8F040FE
:101B400003B0704738B505460C46FFF7FEFD6B68DD
:101B50002118994205DD2846BDE838402031FFF7BD
:101B600095BF012038BD70B5054608460E4628F0E1
:101B700031FA01462846FFF7E5FF044618B1314621
:101B8000A86827F06EFC204670BD002307B5ADF8AD
:101B9000043002AB03F8041D1946FFF7E4FF03B05D
:101BA0005DF804FB70B5044608460D4628F012FAAD
:101BB0006368014698420DDD2046FFF767FF064641
:101BC00040B962682946A06828F045FAA2686368AF
:101BD000D65470BD2946A068BDE8704027F06ABCA5
:101BE000FFF7E0BF08B50C2025F0C8FC18B10023B2
:101BF00003604360836008BD00B18068704738B5FA
:101C00000D46044608B9002038BD082025F0B6FC72
:101C10000028F8D0002343602368056033B92060B2
:101C2000A36860600133A360012038BD6368002BA6
:101C3000F6D05860F4E798B12AB121B1106878B1B4
:101C40004368136008E0006841B100B9704740681C
:101C50000139F9E7002AF3D1006870470028F9D16B
:101C60007047F8B50D4616461F4608B90020F8BD66
:101C70000029FBD00468002CF8D0069B3A46314678
:101C80002068A84708B92068F8BD6468F3E7F8B58C
:101C90000D4616461F4608B90120F8BD0029FBD0A5
:101CA0000468002CF8D0069B3A4631462068A847C5
:101CB00008B16468F5E7F8BD10B5044603F0CCFB45
:101CC000013C14F8010F18B9BDE8104003F0D4BB73
:101CD000FEF74EFEF5E70FB470B54FF48075C2B055
:101CE00046AC54F8046B2A46002102A825F0E4FC17
:101CF00023463246294602A8019429F0B5FD044640
:101D000002A8FFF7D9FF204642B0BDE8704004B0FA
:101D1000704770B50646FEF723FC841941F10005B3
:101D2000FEF71EFCA94208BFA042F9D370BD08B55A
:101D300003F002FA831E5842584108BD10B504460C
:101D4000FFF7F5FF20B12046BDE8104002F0DEBFEE
:101D50004FF47A706043BDE81040FFF7DABFFFFF31
:101D60002DE9F0430646C1B0154698460C460029B9
:101D700050D0114647680068A04729462648A0472A
:101D8000B2682649684627F0BBFA29466846A0474C
:101D9000F2682249684627F0B3FA29466846A04708
:101DA0001F49327C684627F0ABFA29466846A047AF
:101DB000B8F1000F0FD069464FF48072304600F042
:101DC000F9FA29466846A04716482946A047012047
:101DD00041B0BDE8F0833A781349684627F090FA9D
:101DE00029466846A047B368F668DFF840905E432E
:101DF00007F101080136A6EB08033B44012BE3D9A8
:101E0000494618F8012B684627F07AFA29466846B1
:101E1000A047F0E70846DBE76D320400350E04000A
:101E20003A0E0400BF2504003F0E04003E0E0400DD
:101E300070B50D46044628F0CDF82B460246012128
:101E40002046BDE8704025F019B9FFFFF0B50C46FB
:101E500087B017461D46064648B341B310220021FD
:101E600002A825F029FC7068FFF7C6FE114902465A
:101E700002A827F045FA29460F48A04729463068AE
:101E8000A04729460D48A047294602A8A047009729
:101E90002B4622460A497068FFF7F9FE2946094891
:101EA000A04729463068A04729460748A04707B001
:101EB000F0BD00BF5B2C0400440E04006D32040032
:101EC000611D01004B0E0400BF2504004B688A68A9
:101ED0000968FFF7BBBFFFFF1FB501900291039296
:101EE00001A90022024800F049FD05B05DF804FB9D
:101EF000CD1E01000B4619B100220249FFF7A6BF13
:101F0000704700BF311E01002DE9F04FC9B008AE87
:101F1000054680220021304625F0CEFB0024DFF864
:101F20009CA12A467F21304624F088FD18B920461E
:101F300049B0BDE8F08F6049304628F0B4F88642D9
:101F4000EFD13A2127F09CFA00F101083A214046EE
:101F500027F096FA07460028E3D000230370404696
:101F600000F0C4FC01900028DBD0781C24F054FB66
:101F700080460DF1A009B8F1000F01D10124D0E78E
:101F8000002480220021484625F096FB274628465B
:101F900024F0EAFC431C19D03A2819D10137032F49
:101FA00016DD002407AA51464846079428F049FF49
:101FB00007AA51460746204628F043FF07AA834652
:101FC0005146204628F03DFF04463FB90024AEE7C5
:101FD00009F8040001347F2CD9D1E2E7BBF1000FEE
:101FE000F4D00028F2D0584624F016FB8346204651
:101FF00024F012FB394600FB0BFB019800F0B8F807
:1020000080B18268C36853439B450BD1476807EB97
:102010000B034FF0FF3B0393039B9F4205D1BBF1A2
:102020000A0FD3D108F1FF38A5E7284624F09CFC1D
:102030000446284624F098FC0290284624F094FC9C
:10204000B0F1FF3F8346C1D025F01EFAE3B25A1C1F
:10205000815C480712D5303C25F016FA9DF808300F
:10206000E4B25A1C815C24014907E4B215D5029BF5
:10207000303B1C44E4B207F8014BCDE705930492D2
:1020800025F002FA049A059B825C02F00302012A01
:1020900008BF2033A3F15704DEE70492029325F032
:1020A000F3F9049A029B825C02F00302012A08BF42
:1020B0002033573BDDE700BF440E04006D320400BF
:1020C00008B542684B689A4207D00968006827F053
:1020D000E5F9003018BF012008BD002008BD08B593
:1020E0000B460168184627F0D9F9003018BF0120C7
:1020F00008BDFFFF2DE9F743894690461F46BDF80E
:102100002850064620B90025284603B0BDE8F083D4
:102110000029F8D0002AF6D0002BF4D0142025F0A6
:102120002DFA04460028EED09DF82C30002D0374C3
:1021300008BF01250023C560C0F80090C0F80480E6
:1021400087600093024609497068FFF7A0FD0546C5
:1021500018B9204625F01AFAD6E721467068FFF72D
:102160004EFD05460028CFD1F3E700BFC120010096
:1021700013B50A4640B149B10C78002344B100932D
:1021800004494068FFF76DFD02B010BD0846FBE74B
:102190002046F9E7DF20010037B50D4600F0A6FB29
:1021A00048B155B12C7800234CB100932A4605491B
:1021B0004068FFF756FD03B030BD2846FBE72046D8
:1021C000F9E700BFDF2001002DE9F3471446FFF7D0
:1021D000E3FF8046002800F0DF8098F810300430DC
:1021E000013B85C807FB0207072B00F2D580DFE81B
:1021F00003F0224B70ABD395D30405464FF0000992
:10220000674EBD4228D22146304627F04CFF221AA5
:10221000D8F8043050425041187023461A781C46B2
:10222000013312B12C2AF9D11C46D8F808304FF0EE
:1022300001091D44E5E700230646994602ADDFF893
:1022400064A145F8043DBE4206D22A4651462046C6
:1022500027F07AF8012803D0484602B0BDE8F0879D
:10226000D8F808202946304625F001FA23461A7886
:102270001C46013312B12C2AF9D11C46D8F808307B
:102280004FF001091E44DEE700230546994602AEE1
:10229000DFF814A146F8043DBD42DDD23246514676
:1022A000204627F051F80128D6D1D8F80820314629
:1022B000284625F0DCF923461A781C46013312B172
:1022C0002C2AF9D11C46D8F808304FF001091D44DA
:1022D000E2E74FF00009054602AEDFF8D0A006F8AD
:1022E000049DBD42B8D232465146204627F02CF814
:1022F0000128B1D1D8F808203146284625F0B7F991
:1023000023461A781C46013312B12C2AF9D11C46F7
:10231000D8F808304FF001091D44E2E7002125F00C
:10232000CBF9204627F056FED8F80830D8F80450EC
:1023300098420246214628BF03F1FF32284625F085
:1023400096F94FF0010987E7002305464FF0000991
:1023500002AEDFF85CA046F8043DBD42BFF47CAF9E
:1023600032465146204626F0EFFF01287FF474AF35
:10237000D8F808203146284625F079F923461A78FE
:102380001C46013312B12C2AF9D11C46D8F808306A
:102390004FF001091D44E0E74FF000095CE700BF82
:1023A000070F0400760E0400AE0E0400CD0E0400EC
:1023B000FA0E0400037C2DE9F74F013B05460C465D
:1023C0001646072B00F2F781DFE813F008008B00B8
:1023D0000D017801D40147012A014E018368012BC8
:1023E00020D14768CA4A97F900303146204626F086
:1023F00053FFDFF85493C7F1010807EB0803EA68BD
:102400009BB2934203D3012003B0BDE8F08F204676
:1024100027F0E0FD17F9013F311A4A46204426F023
:102420003BFFEAE7022B1BD1D0F80480B94AB8F988
:1024300000303146204626F02FFF0127DFF80893B1
:10244000EB689F42DFD2204627F0C4FD0137311AE6
:1024500038F9023F4A46204426F01EFFBFB2EFE79C
:10246000042B1BD1D0F80480AB4AD8F80030314699
:10247000204626F011FF0127DFF8D092EB689F423B
:10248000C1D2204627F0A6FD0137311A58F8043F83
:102490004A46204426F000FFBFB2EFE7082B40F089
:1024A0008A81D0F804803146D8E900232046CDE95E
:1024B00000239A4A26F0F0FE0127DFF89492EB6899
:1024C0009F42A0D2204627F085FDF8E90223311A69
:1024D000CDE9002320444A46013726F0DDFEBFB295
:1024E000EDE78368012B1CD147688D4A3B78314664
:1024F000204626F0D1FEDFF85C92C7F1010807EB19
:102500000803EA689BB29342BFF47DAF204627F0F0
:1025100061FD17F8013F311A4A46204426F0BCFEFF
:10252000EDE7022B1CD1D0F804807E4AB8F80030C9
:102530003146204626F0B0FE0127DFF81892EB68FE
:102540009F42BFF460AF204627F044FD0137311AA7
:1025500038F8023F4A46204426F09EFEBFB2EEE71E
:10256000042B1CD1D0F804806F4AD8F800303146D3
:10257000204626F091FE0127DFF8DC91EB689F42B0
:10258000BFF441AF204627F025FD0137311A58F836
:10259000043F4A46204426F07FFEBFB2EEE7082BF8
:1025A00040F00981D0F804803146D8E90023204664
:1025B000CDE900235D4A26F06FFE0127DFF89C91EC
:1025C000EB689F42BFF41FAF204627F003FDF8E9F8
:1025D0000223311ACDE9002320444A46013726F070
:1025E0005BFEBFB2ECE74768514A3B783146204674
:1025F00026F052FEDFF86891C7F1010807EB0803E7
:10260000EA689BB29342BFF4FEAE204627F0E2FC9C
:1026100017F8013F311A4A46204426F03DFEEDE707
:102620004768444A3B783146204626F035FEDFF8BD
:102630003491C7F1010807EB0803EA689BB29342A3
:10264000BFF4E1AE204627F0C5FC17F8013F311A70
:102650004A46204426F020FEEDE74368364A3146DC
:10266000204626F019FECEE6D0F804A0334F9AF8A3
:102670000030DFF8F480324A002B14BF3B4643465B
:102680003146204626F008FED146DFF8E0B0CAF118
:1026900001034B44EA689BB29342BFF4B4AE2046B8
:1026A00027F098FC19F8013F311A002B14BF3B4664
:1026B00043465A46204426F0EFFDE8E7D0F8049060
:1026C0000127D9F8000023F093F91E4ACDE9000153
:1026D0003146204626F0E0FDDFF894A0EB689F42EB
:1026E000BFF491AE204627F075FCA6EB000B04EB7F
:1026F000000859F8040F23F07BF90137CDE90001F8
:1027000052465946404626F0C7FDBFB2E6E700BF35
:10271000560E0400620E04006B0E04007A0E0400D4
:102720008B0E0400980E0400A20E0400B20E0400EA
:10273000C40E0400D00E0400DA0E0400070F0400DB
:10274000E40E0400F00E04005E0E0400750E04009A
:10275000850E0400940E0400AD0E0400BE0E0400AD
:10276000CC0E0400CD0E0400500E0400EC0E04004C
:10277000F90E0400D0F804803146D8E90023204641
:10278000CDE900230D4A26F087FD0127DFF83090C0
:10279000EB689F42BFF437AE204627F01BFCF8E9F8
:1027A0000223311ACDE9002320444A46013726F09E
:1027B00073FDBFB2ECE7002026E600BFFD0E04006B
:1027C000F90E040038B514461D46FFF7E5FC28B1A4
:1027D0002A462146BDE83840FFF7ECBD38BD2DE95B
:1027E000F34100240746904601940D4629B120B1DB
:1027F0007868FFF701FA844202D302B0BDE8F081A5
:1028000001AA21467868FFF716FA78B1C36886688E
:102810005E43B8F1000F06D02B684168324608EBE2
:10282000030024F024FF2B681E442E600134DFE7F0
:102830002DE9F74300248846174601940646C0B1A7
:102840007068FFF7D9F9844213D201AA2146706853
:10285000FFF7F1F990B1C3688568D7F800905D4340
:1028600041682A4608EB090024F0F2FE20B100235B
:102870003B6003B0BDE8F0834D443D600134DFE7C9
:1028800007B5002202A941F8042DFFF7A8FF01981F
:1028900003B05DF804FB07B5002202AB43F8042D3A
:1028A0000A461946FFF79BFF019803B05DF804FB49
:1028B000002307B502AA42F8043DFFF7B9FF0198CB
:1028C000003018BF012003B05DF804FB10B50C46C2
:1028D00011461A46A047012010BD08B5006826F031
:1028E000DDFD003018BF012008BDFFFF07B5002344
:1028F00030B102460448009304490068FFF7B1F97B
:1029000003B05DF804FB00BFECC30720DB28010027
:10291000F8B5064610B900242046F8BD0378002B10
:10292000F9D0154D2B6813B9FFF75CF928603046D4
:10293000FFF7DCFF07460028EDD1082024F01EFE3B
:1029400004460028E7D080E8C000FFF74BF960603C
:1029500018B9204624F01AFEDDE728682146FFF763
:102960004EF905460028D7D1606824F00FFE2046B6
:1029700024F00CFE2C46CFE7ECC3072007B50B462E
:1029800030B100920246044804490068FFF77FF91D
:1029900003B05DF804FB00BFECC30720CD280100A5
:1029A000124B30B51A68014612B94FF080521A60C6
:1029B00018680F4A44180F4D2244AA4297BF0E4A86
:1029C0001C60881818601C6898BF10460B4A944217
:1029D00082BF01321A60002039B1094A13680133FD
:1029E0001360084B1860084B196030BDF8C307200E
:1029F000FF7FFFEFFE3F071050DF0720FF3F08205B
:102A0000F0C30720F4C30720FCC3072024F0B6BDA1
:102A100024F0B4BD24F0BABD24F0B8BD30B50446EE
:102A20008BB0684625F0ACF8214B224D2360089B03
:102A3000214AA360079B636053B913681F498B4207
:102A40008ABF03F1604303F17043A3F5E823636099
:102A500000236168E360B1F5803F82BF01F17041FE
:102A6000A1F5E82161601168144A914213D8C5F1BB
:102A70000053521A03F504231A44E2602046104B17
:102A8000E1611B68A3610F4B1B6863610E4B1B6800
:102A900023610BB030BD0D4B9942EFD8C1F180439B
:102AA00003F580135B1B002BC8BFE360E6E700BFA4
:102AB000501F000050DF0720F8C3072000800010DF
:102AC000F4C30720FCC30720F0C30720FF3F082002
:102AD0000020704730B504468DB0A8B30025684685
:102AE00000F074FD9DF8003003A803F03F0303934A
:102AF0009DF801300B9503F03F0304939DF80230DD
:102B000003F01F0305939DF8043003F01F030693A1
:102B10009DF8053003F00F03013B0793BDF8063025
:102B2000C3F30B03A3F26C7308939DF8033003F017
:102B300007030993BDF80830C3F30B03013B0A9365
:102B400024F0A2FE84E8210000200DB030BD02F088
:102B500083BC02F091BC033808B50A2822D8DFE80C
:102B600000F02106060D19151D191121210023F071
:102B7000ABFD022303604FF0FF3008BD23F0A4FD3E
:102B80001623F7E723F0A0FD1323F3E723F09CFDC2
:102B90001123EFE723F098FD0D23EBE723F094FDDD
:102BA0000923E7E723F090FD0523E3E7431C70B515
:102BB0000E4906D00E4B1B68984202D10A68104697
:102BC00070BD00231C460B4D0B60062B1A4606D029
:102BD000531C05EB031656F8106CB04204D104B137
:102BE0000A60034B1860EAE70124EEE770C407208F
:102BF00090C0072010C40720084B10B50446186881
:102C000018B1836B0BB923F063FF24B1012C02D000
:102C1000022C18BF203C204610BD00BF60C1072019
:102C2000014B1860704700BF08C40720014B1860B3
:102C3000704700BF04C4072008B5024826F0D8F842
:102C4000FEE700BF260F040008B5024826F0D0F8C2
:102C5000FEE700BF0C0F0400002070470120704702
:102C600070B50A4B1D7885B90126094C60222946AA
:102C700020461E7024F020FD4FF0FF3323632364B1
:102C80002365022325602661236270BD0CC40720E2
:102C900010C407202DE9F74389461446FFF7ACFF1F
:102CA0000546FFF783FF062806D123F00DFD092313
:102CB00003604FF0FF3016E01B4E0701F3199B68CD
:102CC000DB07F2D4002D11D001DB052DF1DDF31966
:102CD000D8680028EDD001AB2246494605F099F8A6
:102CE000F8B1FFF738FF03B0BDE8F0830F4B1A6867
:102CF000984632B14D46A5EB09039C420ADC24EA12
:102D0000E475601B0028D4DB3E447368201A03443A
:102D10007360E8E7D8F800300020984705F8010B09
:102D2000E9E70198201AEDE710C4072004C4072042
:102D3000F8B50E461746FFF75FFFFFF737FF062887
:102D400004D0124C05016219D06830B923F0BCFCE4
:102D5000092303604FF0FF30F8BD3FB9314605F05D
:102D60003DFA70B1BDE8F840FFF7F5BE012F02D182
:102D700081683144F3E7022F01D1C168F9E70920E6
:102D8000F0E76319DA6890685860F8BD10C407204E
:102D90002DE9F3410F461446FFF72EFF0646FFF7D5
:102DA00005FF0628054604D123F08EFC09230360A5
:102DB00006E0052E26D80120B04010F0390F02D0D1
:102DC0004FF0FF302CE010F0060F1BD0174E30688C
:102DD00030B1B846A8EB07039C420EDC24EAE4704D
:102DE000201A431CECD0A042EAD0114B201A03EB6E
:102DF00005135A6802445A6012E0336818F8010B50
:102E00009847E7E70A4B03EB0513D8680028CBD0B7
:102E100001AB2246394605F0B4F820B1FFF79BFE1E
:102E200002B0BDE8F0810198DAE700BF08C40720CE
:102E300010C407200EB42DE9F84107464FF0FF30CB
:102E4000079DFFF7B3FE0628064609D123F03CFC98
:102E5000172303604FF0FF30BDE8F84103B070471F
:102E600028074349384648BF25F4806526F016FBFD
:102E7000002876D03F49384626F010FB002872D053
:102E80003D49384626F00AFB00286ED005F4C063A1
:102E9000B3F5C06F01D1A9070DD105F42063B3F5D7
:102EA000206F39D015F4007238D1022D04D923F0E7
:102EB0000BFC1623CDE7082215F0030330D142F0B6
:102EC000010423F001FC052303602C4B03EB0618DF
:102ED000D8F80C00C0B94FF40971012023F0E4FBCD
:102EE000C8F80C000028B5D0E2B2394604F0FAFE6A
:102EF00010B9B41D621C1DD1FFF72DFE1F4B03EB53
:102F00000613D8680028A5D024F040FB1B4B03EB28
:102F100006160023F3609DE70022CDE71022CBE7E1
:102F2000012B02D142F00204CBE7022BBFD142F0C9
:102F30000304C6E7002CE1DB104A3301D718D45054
:102F400000237B602B07BD6008D5F868C16805F0D9
:102F500045F90028D2D1FB689B687B6004F1200012
:102F60007AE70324E8E70424E6E70524E4E700BF62
:102F7000400F04004B0F0400560F040010C407203C
:102F800038B5FFF739FEFFF711FE062806D123F00A
:102F90009BFB092303604FF0FF3038BD4FF0FF3239
:102FA0000B4B00011C181A50E06808B9002038BD0E
:102FB00005F002F90546E06824F0E8FA0023E36032
:102FC000002DF3D02846BDE83840FFF7C4BD00BF50
:102FD00010C4072008B523F077FB582303604FF097
:102FE000FF3008BD074B1B689A68824207D05A68B9
:102FF000824204D0DB681B1A5842584170470120B6
:10300000704700BF60C1072070B5174B0E465C6962
:10301000164B05461A6C1A2022F470021A641A6CB8
:1030200004F4406442F420021A64996E41F4406151
:103030009966196821F470011960196841F420013A
:1030400019600321FDF7F4F9FDF784F9B4F5406F39
:1030500006D13246C1082846BDE8704000F038BDB0
:10306000012300206B7170BD00C0092000C0024028
:1030700010B50446024900F003FD204610BD00BF14
:1030800000000A4038B5074C236833B91C20FFF70D
:10309000BDFC0546FFF7ECFF25602068BDE8384021
:1030A00000F0F0BD74C4072070B590F853508AB09A
:1030B000044605B9457C284602F05CFF002294F8DE
:1030C000523084F8522094F8542006460092012190
:1030D00004F13A02284602F07BFD044670B1314605
:1030E00002A803F0CDFA48B19DF80C3003F0C003FC
:1030F000C02B03D19DF80830AB4200D000242046FD
:103100000AB070BD10B50446024B036000F0D8FF52
:10311000204610BDC40F040010B50446FFF7F2FFAF
:103120002046582109F071FE204610BD10B590F8D8
:103130005240621CD2B20444172A80F8522084F80C
:103140003A1002D903689B689847012010BD70B5FA
:103150000E46037E90F8311004469942B4BF012513
:1031600000250BDB1146113003F082FA30B1002349
:10317000257E84F83130ED1A18BF01253DB194F851
:1031800031305A1C84F831201C44637E3370284649
:1031900070BDFFFF70B5044600F082FF0C4B0025A8
:1031A000236021260323324684F85430294684F8CC
:1031B000535004F1110024F07FFA3246294604F1FD
:1031C000320024F079FA072002F0D2FB204670BDCD
:1031D000C40F040008B5044B1B689847034A137AD0
:1031E00043F00103137208BD78C4072000000B40B0
:1031F00010B50446024B036000F062FF204610BD8C
:103200007010040010B50446FFF7F2FF20462C2191
:1032100009F0FBFD204610BDF7B50D460D490446EB
:103220000868164620F0F000086008681F4640F065
:103230005000086001210320FDF7FAF8FDF78AF835
:103240000097014633462A46204600F04BFE03B065
:10325000F0BD00BF00C0024010B50446034900F0B5
:103260002DFE034B2046236010BD00BF00C0004070
:103270002C10040038B5074C236833B92C20FFF715
:10328000C5FB0546FFF7E8FF25602068BDE838402C
:1032900000F0B4BD7CC4072010B50A4C23681BB9EC
:1032A000012001F0CFF8206001F046FF022808D18C
:1032B000002320684FF0FF32BDE81040194601F0AE
:1032C00047B910BD80C4072010B501F035FF0228B2
:1032D00008D1BDE81040002303481A46194600688B
:1032E00001F02EB810BD00BF80C407201FB50446F2
:1032F000054B0DF1100E0FCB0EE90F000EEB840401
:1033000054F8100C04B010BD40100400F7B50F467F
:103310000646FFF7EBFF17230124162202218DF842
:1033200003308DF8073002AB1E448DF802208DF873
:1033300001108DF8004005468DF8051016F8080CB0
:1033400021468DF806208DF80440FDF757F82146F8
:1033500016F8040CFDF76CF80023AB606C602B676B
:10336000FCF7F8FF034BB0FBF3F04743EF6003B00B
:10337000F0BD00BF40420F00074A136823F0E0632E
:1033800023F0FF0313600123116803FA00F041F0FA
:10339000807108431060704700400340002307B568
:1033A0000D4A019352680D48C2F30B12ADF802208A
:1033B0000DF1020101AA006801F056F8019B3BB132
:1033C0004FF08052064B1A60BFF34F8FBFF36F8FE1
:1033D00003B05DF804FB00BF0040034088C4072031
:1033E00004ED00E010B5FCF7B5FF0121C4080C2086
:1033F000FDF704F803210C20FDF71AF84FF4001331
:10340000104A114913600223B4FBF3F0884214D828
:10341000116841EA03231360012001F013F80B4BFC
:10342000002218600221012000F068FF4FF48002A2
:10343000074B1860074B1A6010BD0233B3F5807F4D
:10344000E2D1E9E7004003403F5DC60084C40720A5
:1034500088C4072000E100E0F7B5002407280546EE
:10346000ADF806401DD801F067FE0228154E1CD1AC
:10347000154F23464FF0FF322146386801F068F8B7
:103480002846FFF779FF23464FF0FF320DF1060182
:10349000306801F05DF8234622462146386800F086
:1034A0004FFFBDF8060003B0F0BD2846FFF764FFEC
:1034B00000230DF106011A46306801F049F8002892
:1034C000F6D0EEE788C4072084C40720026830B530
:1034D000D36913F0040310D002F1300301F110049A
:1034E00051F8045BA14243F8045BF9D1438A0133EC
:1034F000438221230120536030BD184630BDFFFFB9
:103500002DE9FF41264C450154F805806719D8F88C
:103510000C60D8F808303343D90716D5786801F025
:10352000EEF8FB8908F1200198424FF0000388BFB4
:10353000F88167191A46786800F096FF58B3BB8A7D
:103540000133BB820423C8F8043040F202631E42F8
:1035500012D06719B86801F0D2F83B8A002298426D
:1035600088BF388267196946B86801F08BF818B1CE
:1035700069463846FFF7AAFFB20603D563199B696F
:1035800030469847330703D52C44E36930469847C3
:1035900004B0BDE8F081BB890133BB81D2E700BF35
:1035A00094C00720084B10B5D3F8C440A20402D53C
:1035B0000020FFF7A5FF630404D5BDE810400120FB
:1035C000FFF79EBF10BD00BF00C00F40F0B587B031
:1035D0006C460F4D074695E807008DE8070003AEDF
:1035E00095E8070086E807000C223146204624F0C3
:1035F0002FF838B903CC386020687960B860384655
:1036000007B0F0BD95E8070084E80700E8E700BFD1
:10361000144002400022184B1A720278C2F30502CD
:1036200083F820204278C2F3050283F824208278B0
:10363000C2F3040283F82820C278C2F3020283F89E
:1036400030200279C2F3040283F82C204279C2F3BD
:10365000030283F83820C179827901F00F0142EA30
:103660000122417A9A87027A01F00F0142EA01228F
:103670009A8601221A727047004002401FB501214C
:103680000920FCF7BBFE01222F4B01A81A72FFF79D
:103690009DFFBDF80A3003F62603C3F30B030F2B7F
:1036A0001ED89DF8053003F03F033B2B18DC9DF836
:1036B000043003F03F033B2B12DC9DF8063003F08F
:1036C0001F03172B0CDCBDF80C30C3F30B03B3F551
:1036D000B77F05DA9DF8093003F00F030C2B2FDDBF
:1036E00001229DF8083001A862F304038DF8083028
:1036F0009DF8093062F3030340F2DA728DF8093065
:10370000BDF80A3062F30B03ADF80A309DF80730BC
:103710006FF302038DF807309DF806306FF3040352
:103720008DF806309DF805306FF305038DF80530F0
:103730009DF804306FF305038DF80430FFF76AFF3E
:1037400005B05DF804FB00BF0040024007B501A8CA
:1037500027F0DCFC01A822F0AFFF03B05DF804FB0A
:1037600070B505460E4614460CB12B6803B970BD02
:103770002268134208D06368984722682B6823EABE
:1037800002032B6023683360A468EDE7F8B50124D9
:1037900084400F4616461D4610D079B10C2023F008
:1037A000EDFE58B14FF40012336880E8900083605A
:1037B0002B6830601C43024B2C601A60F8BD00BFC0
:1037C00000E100E01FB5184C184963686846009393
:1037D000A3680193636A0293A36A0393144B1A6864
:1037E000FFF7BEFF134B11491A6801A8FFF7B8FF96
:1037F000114B12491A6802A8FFF7B2FF104B0F498C
:103800001A6803A8FFF7ACFF009B0BB9019B13B12B
:103810004FF0FF33E360029B0BB9039B13B14FF0F2
:10382000FF33E36204B010BD808002408C80024010
:1038300090C407208CC4072098C40720AC800240A5
:1038400094C4072010B414460029064A0649074BC1
:1038500018BF1346064A18BF0A46214610BCFFF798
:1038600095BF00BF948002408CC407209080024026
:1038700090C4072008B501211D20FCF7BFFD0122DF
:10388000024B1A631A6BD207FCD508BD00400050EA
:103890004FF0FF3337B5B1F5805F01934AD2274B24
:1038A0001C69E50748D4264C2469E40744D4254C18
:1038B000E5686D0735D40325234CA5602561234DAC
:1038C0001D60002A2FD001AC5C6041F00044DC6038
:1038D00000249C6041F206041C61194C3AB320603C
:1038E00041F080610022E1606560A2604FF40862EF
:1038F00022611A6942F001021A61226942F0010252
:103900002261104A516A41F003015162D868C0F344
:103910000B000028FAD1536A23F00303536203B06B
:1039200030BDA568C4E7586041F00844CFE701AA5C
:103930002260D7E70120F2E70220F0E720410050A3
:1039400000410050000003400040005008000340C8
:103950002DE9F84344790546894690461E46089F5E
:103960001CB100242046BDE8F883002BF9D001F0FB
:10397000E3FB02282CD020222B682F61AE61AC75AE
:1039800085F8149085F815801A60FCF7E9FD4FF46E
:103990007A72002322F092FC10F57A7641F100074A
:1039A0000023E8681A46194600F0D2FD20B1AC7D2C
:1039B000B4FA84F46409D5E7FCF7D2FD4FF47A72C7
:1039C000002322F07BFC8F4208BF8642E8D2EEE75C
:1039D00023464FF47A722146A86800F0B9FD00280A
:1039E000BFD0234622462146E86800F0B1FD2022E0
:1039F0002B68AC7585F8149085F815802F61AE6141
:103A000021461A60E86823464FF47A7200F0A0FD60
:103A100018B1AC7DB4FA84F464090023A8681A468E
:103A2000194600F08DFC9DE741F00101FFF790BFC2
:103A30001FB5002404AB03F8014D01240094FFF7E7
:103A4000F3FF9DF80F0004B010BD01F0FE01FFF779
:103A50007FBF1FB504AC04F8013D0123009323464A
:103A6000FFF7F3FF04B010BD1FB5002204AB03F84D
:103A7000012D0092FFF7D8FF05B05DF804FBFFFFB2
:103A800038B50025044601604571012000F0DAFCDC
:103A90000322A0602946012000F030FC2368094A77
:103AA000E060934203D10A232371204638BD064AC1
:103AB000934201D10B23F7E7044A93420CBF0C2336
:103AC0006323F1E700C0014000C0054000000A4048
:103AD00090F9043070B50B2B05460C46164634D0D1
:103AE0000C2B35D00A2B36D101210720FCF786FCA0
:103AF000B6F57A7F98BF4FF47A714FF06C0294BF9D
:103B0000714316492B68B4FBF1F19A6128226420B5
:103B100049084A43B2FBF0F21A613C2251430022A9
:103B2000B1FBF0F15961DA601A625A629A6240227E
:103B300001201A6095F90430094A590903F01F035E
:103B400000FA03F342F8213070BD01211320CDE7C4
:103B500001211A20CAE7002070BD00BFA086010025
:103B600000E100E0036830B55968024628294AD0D0
:103B70000BD810292CD0182932D008290AD1027D5F
:103B800002F0FE029A60996128E0402959D00DD8D0
:103B900038296DD0596891752021996110211960DB
:103BA000082199611968C906FCD425E0502951D033
:103BB0005829EFD181699B680B70202103689961B6
:103BC00010211960082199611968C806FCD413E016
:103BD000027D42F001029A6008229A61002030BD05
:103BE00020201469986108215CB998611020186040
:103BF00099611968C906FCD4137DDD0715D501202C
:103C000030BD527DBEE7007D10F0010002D02022C1
:103C10001A60E1E7116951B920229A6110221A60F5
:103C200008229A611A68D406FCD4022030BD946937
:103C3000013914F8015B9D609461116108229A6159
:103C400030BD202102699961012A4FF00402DFD8BA
:103C50009A61C1E79B68816904220B708369013313
:103C600083610369013B012B03610368D0D1EFE756
:103C7000017D5B6811F0010F937514BF01200220D4
:103C800030BDFFFF13B50446FFF76CFF80B1002382
:103C900002A941F8043DE06800F026FC019B3BB11D
:103CA0004FF08052034B1A60BFF34F8FBFF36F8FFB
:103CB00002B010BD04ED00E037B5044615468DF89E
:103CC000071001F039FA022809D063699DF807202E
:103CD0001A701A7D5206FCD5012003B030BD0023B6
:103CE0002A460DF10701E06900F02AFB0028F4D014
:103CF00063691B7D5B06EFD500230DF107011A46B2
:103D0000E06900F025FC0028E6D063699DF80720F3
:103D10001A70E1E710B50446024B036000F0D0F9D9
:103D2000204610BD7010040010B50446FFF7F2FFE6
:103D300020462C2109F069F8204610BD10B5044634
:103D400001F0FAF9022807D1E06900F0CFFC18B1C0
:103D5000012000F0DBFFF7E7012010BDF8B50646B3
:103D600014460F4609B90020F8BD8369002BFAD02C
:103D700001F0E2F9022809D1002322463946B06950
:103D800000F0E6FB003018BF0120F8BDFCF7E8FBAF
:103D90004FF47A72002322F091FA002504440023A4
:103DA00039461A46B06900F0D3FB58B9FCF7D8FB86
:103DB0004FF47A72002322F081FA8D4208BF8442C8
:103DC000EDD2D0E70120F8BD802310B54469090188
:103DD0002373006AB0FBF1F021F0E8FD064B0022EE
:103DE00021F0A8FC21F0E0FE80B2030A2371032336
:103DF000C0B22070237310BD0000E03F002373B5F4
:103E0000426901938DF803309368044603F00E0372
:103E1000042B21D00C2B1FD0022B3FD1C06900F006
:103E20006EFCE38C984203D9E06900F068FCE08402
:103E30001026002501AA0DF10301E06900F022FC23
:103E400000282ED15DB34FF080521B4B1A60BFF398
:103E50004F8FBFF36F8F22E000F02EFE0025A0628F
:103E600063691A7DD2070ED51B7801AA8DF803303D
:103E70000DF103010023A06900F0F6FA019B002B6D
:103E800018BF0125ECE7A06900F039FCA38C98422B
:103E9000D8D9A06900F033FCA084D3E7137D02B029
:103EA00070BD63699DF803201A70019B002B18BF39
:103EB0000125013EC6D0BDE704ED00E038B504465B
:103EC0000D4600F0EDF8064B6561236000232046A7
:103ED000A361E3612362A384E384A36238BD00BFCE
:103EE0007010040070B516461D46254A4369044605
:103EF000934201622FD101210320FCF77FFA202297
:103F0000204B31461A604122636920461A721A7AA0
:103F100042F006021A72FFF757FFA26942B9082D54
:103F200028464FF00101B8BF082000F0E7F9A06172
:103F3000E2693AB9049801210828B8BF082000F0C6
:103F4000DDF9E061072263695A60A3690BB1E36997
:103F5000A3B9002070BD0C4A934205D1012118205D
:103F6000FCF74CFA8022CBE7084A9342F1D10121B9
:103F70001920FCF743FA4FF48072C1E7012070BDAD
:103F800000C0004000E100E00080094000C009409E
:103F90000120704770B50546164609B9002070BD6E
:103FA0004C1E14F8011F39B12B6832465B68284655
:103FB00098470028F5D1F1E7012070BD38B50446D7
:103FC0001546FFF7E7FF2A462046BDE8384001497D
:103FD000FFF7E0BF300A04002DE9F743002407464D
:103FE0000D469046994602AE06F8014D3B684A469A
:103FF0001B6831463846984778B19DF807200D2A4E
:1040000003D00A2A1CBF2A7001350134444509DA5D
:104010000A2AEBD100232B7001E0002CFAD103B067
:10402000BDE8F0830020F5E70EB433B5044601F097
:1040300083F8022806D100234FF0FF321946E068CA
:1040400000F086FA06AB0093009B059A2189606810
:10405000019327F009FC2389054698420ADB20F0EA
:104060000F01103189B22181606824F02DFF60605A
:104070000028E9D14FF0FF3261682046FFF78AFF40
:1040800001F05AF8022805D10023E0681A461946C3
:1040900000F056F9284602B0BDE8304003B0704742
:1040A000064B10B50360002304464360038103748C
:1040B000012000F0C7F9E060204610BDA010040008
:1040C000044B10B504460360406808B123F05EFA63
:1040D000204610BDA010040030BF704710B50C463C
:1040E0000948FDF7E9FD2046FDF7E6FD0748FDF725
:1040F000E3FD0748FDF70DFE4FF08043AA221A7238
:1041000000221A7010BD00BFEA1004001311040051
:10411000C0C62D0008B50648FDF7CEFD0548FDF7E1
:10412000F8FD4FF08043AA221A7200221A7008BDCF
:10413000B4100400C0C62D0070B51546026C0446CC
:10414000866B42B905689DB9406801F04DF865601D
:104150000136A66370BD6DB9806823F088FAA36844
:10416000226C13446268A360934201D32368A36066
:104170000020EDE7C06823F07AFA236CE2685B4226
:1041800021681A448A42E2603EBF62689B18E3607D
:10419000022DEDD10EB1013EEAE73046D8E773B506
:1041A000856C0A46EB6BA96B019099421AD201A962
:1041B000284695F84540FFF7BFFF64B2631C0646EA
:1041C0000BD16B6A33B105F1240000F07BFE0028AF
:1041D00018BF0126304602B070BD013464B285F8C4
:1041E0004540F7E70026F5E703461A6C10B4084689
:1041F00062B1D9685C681144A142D96028BF1968CE
:1042000010BC28BFD960D96823F031BA10BC704700
:1042100070B5044601F020F994F8455004F12406E5
:104220006DB2002D14DCFF2384F8453001F024F931
:1042300001F012F994F8445004F110066DB2002D0B
:1042400019DCFF2384F84430BDE8704001F014B954
:10425000A36C4BB100212046FFF7A1FF08B100F08D
:104260009BFE013D6DB2DCE7636A002BDBD030467C
:1042700000F028FEF2E72369002BE2D0304600F080
:1042800021FE08B100F088FE013D6DB2D7E7FFFFC7
:1042900038B504460D4601F0DFF8206CE36B226868
:1042A0004343D1181B1A13446160E3600021FF23CC
:1042B000A163A26084F8443084F8453095B923693D
:1042C00063B104F1100000F0FDFD38B14FF08052F1
:1042D000094B1A60BFF34F8FBFF36F8F01F0CCF81B
:1042E000012038BD04F1100001F012F804F124009F
:1042F00001F00EF8F2E700BF04ED00E070B50646ED
:1043000048434C300D4601F01DF9044648B155B9FB
:104310002060E663256401212046FFF7B9FF0023F2
:10432000A364204670BD00F14C030360F1E710B5B3
:1043300002220C460021FFF7E1FF00B1846310BDAB
:104340002DE9FF470027044689461E46B846DFF898
:10435000F0A0019201F080F8A26BE36B9A4201D3C6
:10436000022E21D1324649462046FFF7E5FEA36CD6
:1043700093B131462046FFF712FF38B14FF080521B
:104380002F4B1A60BFF34F8FBFF36F8F01F074F89C
:10439000012004B0BDE8F087636A002BEDD004F182
:1043A000240000F08FFDE8E7019D1DB901F064F8DD
:1043B0000020EEE717B902A800F0BCFD01F05CF8A0
:1043C00000F06CFB01F048F894F84430FF2B08BF74
:1043D00084F8448094F84530FF2B08BF84F845806A
:1043E00001F04AF801A902A800F0B0FD10BB01F0ED
:1043F00033F8A76BE56B01F03FF8AF4214D1019998
:1044000004F1100000F04EFD2046FFF701FF00F020
:10441000E5FB38B94FF08053CAF80030BFF34F8F37
:10442000BFF36F8F012795E72046FFF7F1FE00F0FD
:10443000D5FBF7E72046FFF7EBFE00F0CFFBB7E731
:1044400004ED00E010B5024600210120FFF756FF01
:10445000044638B1002343600360C3601A4619461E
:10446000FFF76EFF204610BD2DE9F041044690464F
:104470001F46EFF311864FF0100383F31188BFF34B
:104480006F8FBFF34F8F826BC36B9A4201D3022FA2
:1044900028D194F845503A466DB22046FFF74CFEBD
:1044A0006B1C1AD1A36C83B139462046FFF777FE07
:1044B00008B9012005E0B8F1000FFAD00120C8F8D2
:1044C000000086F31188BDE8F081636A002BF0D00C
:1044D00004F1240000F0F6FCEAE701356DB284F83F
:1044E0004550E6E70020ECE738B50D46EFF31184C0
:1044F0004FF0100282F31188BFF36F8FBFF34F8F1D
:10450000816BC26B914221D290F84520013152B2A9
:104510008163511C15D1826C62B10021FFF73FFE0F
:1045200008B9012003E0002DFBD00120286084F3AE
:10453000118838BD426A002AF3D0243000F0C2FC52
:10454000EEE7013252B280F84520EAE70020EEE7BC
:104550002DE9FF474FF0000A04460F46984656469D
:10456000DFF81C91019200F077FFA56B55B3394637
:104570002046E668FFF738FEB8F1000F1BD123682C
:10458000013DA56313B900F067FE6060236963B164
:1045900004F1100000F096FC38B14FF08052384B17
:1045A0001A60BFF34F8FBFF36F8F00F065FF0120DC
:1045B00004B0BDE8F087636AE660002BF5D004F133
:1045C0002400E7E7019D1DB900F056FF2846EFE7FC
:1045D000BAF1000F02D102A800F0ACFC00F04CFFD1
:1045E00000F05CFA00F038FF94F84430FF2B08BF6D
:1045F00084F8446094F84530FF2B08BF84F8456088
:1046000000F03AFF01A902A800F0A0FC50BB00F0A6
:1046100023FFA56B00F030FFF5B9236833B900F034
:104620001BFF606800F098FD00F026FF019904F17F
:10463000240000F037FC2046FFF7EAFD00F0CEFA38
:1046400038B94FF08053C9F80030BFF34F8FBFF334
:104650006F8F4FF0010A86E72046FFF7D9FD00F083
:10466000BDFAF6E72046FFF7D3FD00F0B7FA00F0F9
:10467000F3FEA56B00F000FF002DEAD1A6E700BF16
:1046800004ED00E02DE9F04107469046EFF3118676
:104690004FF0100383F31188BFF36F8FBFF34F8F79
:1046A000846B0CB390F84450013C6DB2FFF79CFD55
:1046B0006B1CBC6313D13B690BB901200BE007F104
:1046C000100000F0FFFB0028F7D0B8F1000FF4D085
:1046D0000120C8F8000086F31188BDE8F08101359B
:1046E0006DB287F84450E8E72046F4E710B5044679
:1046F00000F0B2FEA46B00F0BFFE204610BD806B40
:104700007047002313B502AC44F8043D0A46214625
:10471000FFF71EFF019802B010BD30B500254368B9
:1047200000F108015B688B42436004BFC3684360CB
:104730004368DC685B68994208BFC368DA689442E2
:10474000D564F7D1436030BD4FF0805608B5064CB4
:10475000064D2368012B04D92E60BFF34F8FBFF3A2
:104760006F8FFFF7B9FCF4E7A8C4072004ED00E061
:10477000064A13681968064B19B94FF0FF321A60E0
:1047800070471268D268D2685268F8E7A0C4072060
:10479000B4C50720F8B51B4B1B4E1D680446306896
:1047A0000F46043000F0E5FD334640B90120316882
:1047B000164EC96A3268884022EA00023260621CE2
:1047C00007D137B1196812480431BDE8F84000F04C
:1047D000ADBD2C441A68A542546007D90D4A106833
:1047E0001968BDE8F840043100F0ACBD0A4A106811
:1047F0001968043100F0A6FD084B1A68944238BFCE
:104800001C60F8BDE8C507209CC4072084C50720AC
:10481000D4C50720A4C40720A0C40720B4C507201E
:104820002DE9F84F4FEA820A804650460D469946D8
:104830000B9E00F087FE0746002800F09B80582062
:1048400000F080FE0446002800F091805246076385
:10485000A521384622F030FF236BAAF1040A9A44BE
:104860002AF0070A6B1E04F134020735597802F862
:10487000011B13F8011F09B1AB42F7D10A9D4FF09C
:10488000000B092D28BF0925271DE5626564384600
:1048900084F83BB0C4F848B000F045FDC5F10A0506
:1048A00004F1180000F03FFDC4F850B02461A56188
:1048B0006462C4F84CB084F854B04A46414650464D
:1048C00000F0A0FD206006B1346000F0C5FD304B63
:1048D000304E1A68DFF8E48001321A603568002D26
:1048E0004BD134601B68012B1AD108EB050014353D
:1048F00000F00EFDC82DF8D1DFF8C490264D4846D3
:1049000000F006FD284600F003FD244800F000FDFD
:10491000234800F0FDFC234BC3F80090224B1D60A0
:104920000125224A22491368086801331360E26AAC
:1049300005FA02F3034314200B6000FB02803946A2
:1049400000F0F4FC00F098FD1A4B1B6863B133686B
:10495000DA6AE36A9A4207D24FF08052164B1A6025
:10496000BFF34F8FBFF36F8F2846BDE8F88F3846EF
:1049700000F0F7FD4FF0FF35F6E70E4B1B68002BFC
:10498000CED13368DA6AE36A9A4298BF3460C7E7E7
:1049900074C507209CC407209CC50720BCC5072000
:1049A000D4C50720A0C40720A4C4072080C50720C1
:1049B00084C50720D0C5072004ED00E0A8C4072067
:1049C00088C5072038B5104B04461B68984215D09F
:1049D00000F042FD656900F04FFD0C4B1B689D42E5
:1049E0000ED00B4B1B689D420AD00A4B9D4209D149
:1049F000A36A002B14BF0220032038BD002038BD5D
:104A0000022038BD012038BD9CC40720A0C4072067
:104A1000A4C40720D4C5072013B50024114B00946B
:104A200001938022234610491048FFF7F9FE012820
:104A300016D14FF0100383F31188BFF36F8FBFF3CC
:104A40004F8F4FF0FF320A4B1A600A4B18600A4B27
:104A50001C6000F09FFC02B0BDE8104000F05ABDA1
:104A600002B010BDB0C507203F1104004947010046
:104A7000B4C50720D0C50720E8C507204FF01003B4
:104A800083F31188BFF36F8FBFF34F8F0022024B68
:104A90001A6000F0DFBC00BFD0C50720024A1368CF
:104AA00001331360704700BF7CC50720014B1868B5
:104AB000704700BFE8C50720014B1868704700BF6A
:104AC000E8C50720014B1868704700BF74C5072070
:104AD0002DE9F84F364B1B68002B47D1354B1C682E
:104AE00001341C605CB9344A344B1168186810609A
:104AF000334A1960136801331360FFF739FE314DF3
:104B00004FF0000B2B68304F9C423ED3DFF8A8805B
:104B1000DFF8C490D8F80020126872BB4FF0FF3263
:104B20002A6032E006F1040A504600F022FCB16A25
:104B300019B106F1180000F01CFC01224FF0140E10
:104B4000F06AD9F8003002FA00F119431F4BC9F896
:104B500000100EFB0030514600F0E8FB3868F16AA7
:104B6000C26A914228BF4FF0010BD3E7184A4FF0B9
:104B7000000B13680133136011E0D8F80020D268ED
:104B8000D66871688C42CDD229603A680F4BD16AE1
:104B900014224A439A58022A28BF4FF0010B0D4AAB
:104BA0001268002A18BF4FF0010B5846BDE8F88F75
:104BB0007CC50720E8C50720A0C40720A4C407209F
:104BC000B8C50720B4C507209CC40720A8C4072087
:104BD00078C50720ECC5072084C507202DE9F843D8
:104BE00000F03AFC2A4B1A68013A1A601C682CB192
:104BF000002400F041FC2046BDE8F883254B1B68EB
:104C0000002BF5D0DFF8A490234FDFF8A480D9F86B
:104C10000030E3B90CB1FFF7ABFD204D2C6844B177
:104C200001271F4EFFF754FF00B13760013CF9D157
:104C30002C601B4B1B68002BDAD04FF08052194BB5
:104C40001A60BFF34F8FBFF36F8F0124D1E7D9F8FC
:104C50000C300125DC68261D04F1180000F089FBEA
:104C6000304600F086FB1420E26A396805FA02F348
:104C70000B4300FB028031463B6000F057FB0A4BC0
:104C8000E26A1B68DB6A9A4224BF054B1D60BEE7DF
:104C90007CC5072074C5072084C5072078C5072078
:104CA000ECC5072004ED00E09CC40720BCC507202C
:104CB000A8C4072010B5FFF7F1FE124B04681A686C
:104CC0006318A24217D29C4219D99A422CBF0021E4
:104CD0000121036019B10021981AFFF75BFDFFF76E
:104CE0007DFF38B94FF08052074B1A60BFF34F8FEA
:104CF000BFF36F8F10BD9C42E7D90121E9E7002186
:104D0000E7E700BFE8C5072004ED00E008B540B9BB
:104D10004FF08052084B1A60BFF34F8FBFF36F8F75
:104D200008BDFFF7BBFE0021FFF734FDFFF756FF7C
:104D30000028EDD008BD00BF04ED00E0264B70B5A3
:104D40001A68264B12B101221A6070BD1A6000F079
:104D50002BFB234A234C1568A84204D92168CB6C4D
:104D60005B1B0344CB64236810601B6B1A68B2F1B1
:104D7000A53F0BD15A68B2F1A53F07D19A68B2F1AD
:104D8000A53F03D1DB68B3F1A53F04D020682168BB
:104D90003431FFF7A3F9144B1B68B3FA83F31420E3
:104DA000DBB2C3F11F0300FB03F210498D186E68DC
:104DB000083276680A44964200FB031308BF726803
:104DC0006E6008BF6A605B68DB68236023685A6BAB
:104DD000074B5A6470BD00BF7CC50720ECC5072097
:104DE00070C507209CC4072084C50720A8C40720DD
:104DF0000040024070B50446234E00F02DFB04B97C
:104E00003468251D284600F0B4FA60B91421E06A20
:104E10001E4B41435B5833B901221D4982400B6848
:104E200023EA02030B60A36A1BB104F1180000F02F
:104E3000A0FA2946174D184800F078FA00F01CFB3C
:104E40002A682AB100F008FBFFF792FC00F014FB7F
:104E500033689C4216D12B6843B14FF080520F4B00
:104E60001A60BFF34F8FBFF36F8F70BD0C4A0A49B2
:104E700012680968914201D1336070BDBDE870408D
:104E8000FFF75CBF70BD00BF9CC40720A8C407200B
:104E900084C50720D0C50720D4C5072004ED00E055
:104EA00074C5072010B50C46054B1968183100F081
:104EB00049FA2046BDE810400121FFF76BBC00BF56
:104EC0009CC4072038B5C368DC6804F1180528467F
:104ED00000F04FFA114B1B68E3B9251D284600F07E
:104EE00048FA01230E49E26A0868934003431420FC
:104EF0000B6029460B4B00FB023000F017FA0A4BFF
:104F0000E26A1B68DB6A9A4285BF0120074B0020DA
:104F1000186038BD29460648EFE700BF7CC507206A
:104F200084C50720A8C407209CC40720ECC507201F
:104F3000BCC50720034B1B680360034B1B68436021
:104F4000704700BFB8C50720E8C5072038B50D4633
:104F5000044600F081FA0E4B2A681868531C10D0E2
:104F60000C4B21681B689942636801D098420DD2AE
:104F7000C11A8A420AD91B1A13442B602046FFF734
:104F8000D9FF002400F078FA204638BD0124F9E763
:104F9000E8C50720B8C507200122014B1A607047F9
:104FA000ECC507202DE9F0410C4617469846064609
:104FB00058BB1B4B1D6805F134036360EB6A256029
:104FC00023612B6BE361EB6BA360237B032B07D186
:104FD000FFF764FDAB6A0BB102232373FFF7FEFDFD
:104FE0006B6CB8F1050F6361EB6CA3610FD084F8B3
:104FF0000C808FB1296B0A46531A12F8010BA528B1
:10500000FAD09B082384BDE8F0810546D3E73046FB
:10501000FFF7D8FC2073ECE72784BDE8F08100BFE0
:105020009CC407202DE9F84F0D6881460C46934635
:105030001DB300254FF0240A4B6801F108075B6897
:10504000BB424B6004BFCB684B604B68D3F80C800D
:1050500063680AFB05915B6801229F42636008BF99
:10506000E36805F1010508BF63606368DE685B46BD
:105070003046FFF797FFB045EAD12846BDE8F88FE4
:105080002DE9F84306469046FFF708FD1D4B1B68C7
:105090008B4234D8002524272C46DFF8789005F180
:1050A000B40107FB046001224944FFF7BBFF143D34
:1050B00015F1C80F0444F2D1134B0222196807FB03
:1050C0000460FFF7AFFF114B04441968022207FB8D
:1050D0000460FFF7A7FF044407FB046003220C49A8
:1050E000FFF7A0FF0444B8F1000F03D000F05CF913
:1050F000C8F80000FFF772FD2046BDE8F8830024E1
:10510000F8E700BF74C50720A0C40720A4C4072087
:10511000D4C50720A8C4072008B9064B1868026B3D
:105120001346981A13F8011BA529FAD0C0F38F0073
:10513000704700BF9CC40720054B1B6833B1054B6B
:105140001B68002B0CBF0220002070470120704715
:10515000D0C507207CC507202DE9F0410446002872
:1051600039D01E4DC36A2A68D26A934233D21427BB
:1051700082691B4E002AA8BF2A6807FB0363A2BFEF
:10518000D26AC2F10A02826142699A4220D100F1D8
:105190000408404600F0EDF8124A48B9E06A474377
:1051A000F3592BB901211368814023EA01031360ED
:1051B0002B681168D86A012383400B4313601423C2
:1051C000E062414603FB0060BDE8F04100F0AEB88C
:1051D0002B68DB6AC362BDE8F08100BF9CC4072076
:1051E000A8C4072084C50720F8B5044608B90020E4
:1051F000F8BD836CC16A426C013B91428364F6D076
:10520000002BF4D1051D284600F0B3F8104E114ACA
:1052100050B91421E76A794373582BB901201368F8
:10522000B84023EA00031360636CC3F10A01E36230
:10523000A1610124116804FA03F0084310601420EE
:10524000294600FB036000F071F82046F8BD00BF5E
:10525000A8C4072084C50720044B1A681AB119682E
:105260008A6C01328A641868704700BF9CC40720AA
:1052700038B5FFF713FCB424124D635913B1281944
:10528000FFF74BFA143C14F1140FF6D10E4B1A68C9
:10529000126812B11868FFF740FA0C4B1A681268CE
:1052A00012B11868FFF739FA094803680BB1FFF724
:1052B00034FA0022074B1A6000F080F8BDE838404D
:1052C000FFF78CBCA8C40720A0C40720A4C40720F3
:1052D000D4C5072070C5072010B500F065F8064B4F
:1052E000064A196829B119681468CB6C1B1B034462
:1052F000CB64106010BD00BF9CC4072070C50720A0
:1053000008B500F051F8014B186008BD70C50720C2
:1053100000F1080343604FF0FF32C36003610023D4
:1053200082600360704700230361704743689A6896
:105330004B608A609A685160996003680861013324
:10534000036070470A6830B5531C0AD103695A6874
:105350004A6091608B6059600368086101330360A3
:1053600030BD00F108035C682568AA42EFD32346EC
:10537000F9E74168826803698A6082685160596808
:10538000884208BF5A60002202611868013818601C
:105390007047FFFF08B5FBF7E3F8024BC3E90001D4
:1053A00008BD00BFF0C5072008B5FBF7D9F8024BD0
:1053B0001B68C01A08BD00BFF0C5072008B5FBF781
:1053C000CFF8024BC3E9000108BD00BFF0C50720BC
:1053D0004FF0100383F31188BFF36F8FBFF34F8F2C
:1053E000FEE7FFFF06480068006880F3088862B6A1
:1053F00061B6BFF34F8FBFF36F8F00DF00BF0000B8
:1054000008ED00E04FF0807340F8043C054B21F0BC
:10541000010140F8081C40F80C3C40F8202C4038B2
:10542000704700BFD1530100FFFFFFFFFFFFFFFFE9
:10543000074B19680868B0E8F00F80F30988BFF3DC
:105440006F8F4FF0000080F311884EF00D0E704703
:105450009CC407207047FFFF4FF0100383F31188AF
:10546000BFF36F8FBFF34F8F024A1368013313608E
:10547000704700BFF8C50720034A1368013B13605B
:105480000BB983F311887047F8C50720FFFFFFFFB2
:10549000EFF30980BFF36F8F0D4B1A6820E9F00F0F
:1054A00010602DE908404FF0100080F31188FFF7DD
:1054B00045FC4FF0000080F31188BDE808401968F2
:1054C0000868B0E8F00F80F30988BFF36F8F70476A
:1054D0009CC4072008B54FF0100383F31188BFF375
:1054E0006F8FBFF34F8FFFF7F3FA18B14FF0805271
:1054F000024B1A60002383F3118808BD04ED00E01D
:105500004BF67F32024B1A60072243F8042C704797
:1055100014E000E008B5094B1A6842F478021A60FA
:105520001A6842F078421A60FFF7EAFF0022044B43
:105530001A60FFF757FFFFF74BFF00BF20ED00E0B9
:10554000F8C5072010B50446FFF7A8FA204622F058
:1055500015F80446FFF742FB0CB9FEF7DBFD2046C9
:1055600010BD10B5044640B1FFF798FA204622F06E
:105570000DF8BDE81040FFF731BB10BD242310B576
:105580004FF6FF7403FB0101884200D110BD437840
:105590002BB1038C1344A34228BF23460384243039
:1055A000F2E7FFFF002337B502A840F8043D0C4B9B
:1055B00004215B68984705460A4B019A1C68042140
:1055C000141B1A6008482246FFF7D8FF2246022122
:1055D0000648FFF7D3FF281C18BF012003B030BDD9
:1055E000FCC507202CC7072012C60720C6C6072007
:1055F00008B50B4B197803788B420A4B0BBF1A88FE
:105600009A880132013214BF9A801A80064B817049
:10561000DB6820219847003018BF012008BD00BF7B
:10562000D4C00720A2C60720FCC507200A4B027879
:105630001B789A42094B0BBFDA881A890132013272
:105640000CBFDA801A810379C3F3C202073262F316
:10565000C5030371FFF7CCBFD4C00720A2C6072043
:10566000002210B5064B13F822409100844201D16C
:10567000581810BD0132042AF5D1002010BD00BF1A
:105680001BC7072070B1C3780133DBB2FF2BC37097
:1056900008D100230448C118CA7804335208102BDB
:1056A000CA70F8D1704700BF1BC7072024220346E9
:1056B00002FB0101024630B591420FD1044600259C
:1056C0009A4211D01979C1F3C200198C41EA004104
:1056D000A94284BF1C460D462433F1E71446243208
:1056E00012F8235C002DE7D1204630BD38B50446C2
:1056F000C90001F10805FFF755FF1C4B22781B7804
:105700009A4224D102211A48FFF7D0FF0023024613
:1057100080F8203080F82130234690F8231080F85C
:10572000225021F07F01C5F306250D4380F8235058
:1057300004F1200153F8044B8B4242F8044BF9D199
:105740000C4A0379127862F3C503037138BD042152
:105750000948FFF7ABFFE378002BD7D190F823304F
:10576000042543F0800380F82330CFE7D4C007201E
:10577000C6C60720DCC0072012C6072008B5FFF701
:105780006FFF0346D8B9FFF76BFF0346B8B90D4A60
:10579000D378D179D07A8B4296BF1946131D134620
:1057A000814294BF0846084BD17B084A814238BFEA
:1057B0001346002206491A60CA7A0132CA72184694
:1057C00008BD00BF1BC7072023C7072027C7072026
:1057D000A2C607202DE9F0474FF0240805460C46E5
:1057E000002708FB0218DFF85C91DFF85CA1A045F8
:1057F00001D1BDE8F08794F92330002B29DACDB12F
:105800002B786278934209D168782178884205D153
:1058100024220021204621F04FFF69E0E97849B1B8
:105820006978914206D122789A4203D1AA79A37964
:105830009A42EDD094F8232094F82230218C02F083
:105840007F0243EA0223994252DB2046FFF7D0FE53
:10585000DEE76378002B4BD0002D32D02A7902F09E
:10586000C002C02A2BD1227869788A4202D12878D6
:105870009842CDD0E678A878864208D1994206D1E0
:1058800029788A4203D1A179AA799142C0D0A97816
:10589000E278914215D16A789A4212D121782A7819
:1058A00091420ED1A179AA7991420AD1237984F843
:1058B000207067F3C50384F82170237118E0002A73
:1058C000E5D194F8231094F82220208C01F07F0178
:1058D00042EA012290420BDB227984F82070C2F365
:1058E000C201CEB284F8217026B12046FFF79EFE99
:1058F00024347CE702F0C002C02A20D0207899F836
:10590000002090421BD1E278934218D0BAB1032212
:105910006379E17062F3071363712046FFF786FE37
:1059200023799AF8002062F3C50323716078FFF7AA
:1059300097FE00B10760002E7FF46AAFD8E701261A
:10594000F4E700BFD4C00720DCC00720431EDBB251
:10595000FD2B9DBF024B187001200020704700BF37
:10596000D4C00720014B1878704700BFD4C007206F
:1059700007289CBF014B1870704700BFDCC0072090
:105980002DE9F743044691461E469DF828500F46E0
:10599000002965D0344B93F80080414560D00F2E2C
:1059A0005ED800285ED02022002121F085FEFF2F46
:1059B00008BF4FF0000903222379677069F387134A
:1059C00062F30203294A84F80080127884F8028086
:1059D00062F3C503264A237113780133DBB21370D7
:1059E000A3710BAB0193C5B901250123DFF88480B6
:1059F000384688F80030FFF733FE0746FFF742FECF
:105A0000002388F8003063791FBB66F307136371C6
:105A1000E770284603B0BDE8F08304F10809019A55
:105A2000E0791346526853F8081B00EB02085FFA4E
:105A300088F8013DB8F1180F0193EDB207D848443A
:105A400021F015FE84F80780002DE8D1CCE7002571
:105A5000CBE7BA7862F3071363717B78E370D8E71A
:105A60000025D6E70546D4E7D4C00720DCC00720D0
:105A70002BC7072011C60720012270B5134E04461C
:105A8000327020B9002500232846337070BDFFF71F
:105A9000AFFD05460028F5D0237903F0C003402B65
:105AA00010D0A3F180014A424A41C02B0BD1E378C8
:105AB0004BB16178994206D0617920460909FFF718
:105AC00015FEE0E70246002AF6D1DCE711C6072002
:105AD00082B02DE9F0439146421ED2B28DB0FD2A2C
