:020000021000EC
:10000000E03F082095010100FB000100E100010034
:10001000090101001901010029010100000000008F
:10002000000000000000000000000000F155010089
:100030003901010000000000515601005901010082
:1000400079040100790401007904010079040100B8
:1000500079040100790401007904010079040100A8
:100060007904010079040100790401007904010098
:100070007904010079040100790401007904010088
:100080007904010079040100790401007904010078
:100090007904010079040100790401007904010068
:1000A0007904010079040100790401007904010058
:1000B0007904010079040100790401007904010048
:1000C000790401007904010079040100D884040056
:1000D00000C007207C03000080C30720E41B000051
:1000E00004207146084203D0EFF3098000F0E2B922
:1000F000EFF3088000F0DEB9704708B5014801F061
:10010000DBFDFEE78313040008B5024801F0D4FDCF
:10011000FEE700BF8E13040008B5024801F0CCFDD5
:10012000FEE700BF9913040008B5024801F0C4FDC2
:10013000FEE700BFA413040008B5024801F0BCFDAF
:10014000FEE700BFB113040008B5024801F0B4FD9A
:10015000FEE700BFBF13040008B505F09DF905F0E8
:1001600099FABDE8084005F0ABB90B4610B5401A46
:100170005C1AA24203D9C45843F8044BF8E710BDF7
:100180000346002210B51C1AA14202D943F8042BE1
:10019000F9E710BD154800F033F8144800F033F8C3
:1001A000134C144DAC4209D3134DAC420ED254F84B
:1001B000080B54F8041CFFF7E3FFF6E794E803008C
:1001C0000C3454F8042CFFF7D0FFEBE727F02EFD9A
:1001D00000F072FA0BF024F80AF016FB4FF4164008
:1001E00000F08AFB054801F067FDFEE7E03F0820CC
:1001F000CC000100D8000100E0000100D31304008E
:1002000080F30988704780F30888704780F311886D
:100210007047FFFFAA22034BC3F88C205522C3F876
:100220008C20704700C00F402DE9F04F00240C6077
:1002300014601C6040F2FF14DFF860A04FF4FA5520
:10024000002604FB055B06F1010CBBFBFCF8124F1A
:10025000A8F58625A5F50E75BD421AD96646202E4D
:10026000F1D1013C052CE9D10020BDE8F08FB9F5B2
:10027000807F4D46F2D005F10109B8FBF9FED64565
:10028000F5D886450C6016601D60F0D10120BDE8F0
:10029000F08F0325EFE700BF38320400A08601008D
:1002A00030B500242A4985B0D1F8803004AD23F060
:1002B000020345F8044D01940294C1F88030FFF721
:1002C000A9FFD1F8803023F00103C1F88030FFF797
:1002D000A1FFC1F80C41C1F88440FFF79BFF2B46FA
:1002E000C1F8044102AA01A94BF68030FFF79CFF38
:1002F00030B92B4602AA01A945F6C050FFF794FF7A
:10030000019B134963F30F04029B63F3174400231B
:10031000C1F80C31C1F88440FFF77CFF0123C1F81C
:100320008030FFF777FFD1F888305B01FBD5039B66
:10033000C1F804310323C1F88030FFF76BFF044A92
:10034000D2F8883013F0407FFAD005B030BD00BF3E
:1003500000C00F40244BD3F88820C2F30162032A67
:10036000D3F80C2102F003022DD1012A16D0022A63
:100370001ED0D3F888101D48D3F88820D3F8043154
:10038000C1F30E0101FB0000C2F307420132B0FBD2
:10039000F2F0DBB20133B0FBF3F07047D3F8881012
:1003A0001348D3F88820C1F30E01D3F80431E9E7EC
:1003B000D3F88800D3F88820C0F30E000130D3F8BA
:1003C00004310004E0E7D3F80401012AC0B200F1CF
:1003D000010303D0022A03D00648DCE70648DAE727
:1003E0004FF40040D7E700BF00C00F4000127A0072
:1003F00000366E0100093D00001BB70038B50D4600
:10040000044605F009F9094A01234DB1D2F8C400A8
:10041000A3400343C2F8C430BDE8384005F00CB92E
:10042000D2F8C410A34021EA0303F3E700C00F4051
:100430002DE9F0414FEA40080E4605F0EDF842463E
:100440000320002125F0FCFE0A4F4246D7E9004573
:1004500024EA000425EA010506F00300002125F046
:10046000EFFE20432943C7E90001BDE8F04105F054
:10047000E3B800BFA8C10F4008B505F00DF8094B5F
:10048000094A1978094B1039C9B253F821309342FF
:1004900003D1074801F01FFCFEE79847BDE808407C
:1004A00005F00EB804ED00E04901010000C007208E
:1004B0004C130400036888B000934368114A019309
:1004C00083680293C36803930369049343690593A4
:1004D00083690693C36907930B4B9A64069ADA649F
:1004E000059A013A1A65079A5A654FF08043AA2285
:1004F0001A7200221A70009B019B029B039B049BB3
:1005000008B07047EFBEADDE00400240012110B5DB
:100510000F4B104C0846236002F0F8FE4FF0FF32FC
:1005200023689A614FF47A72DA6100221A620A4AE9
:100530005A6240F209225A615A6942F040025A61F5
:100540001822064B83F8022304221A6010BD00BF54
:100550000080004088C3072060E3160000E100E04F
:10056000084B10B51B68084C9A682188986889B2B6
:100570008242F9D80B46002242EA00021046194690
:1005800010BD00BF88C3072084C3072010B50446F0
:100590008EB006A802F042FA0A9B069A05930B9BBE
:1005A000074904930C9B204603930D9B0293099BE0
:1005B0000193089B0093079B29F04EFC0EB010BDE1
:1005C0001D14040010B5044C23681BB9012002F06F
:1005D0001DFA2060206810BD80C3072038B52B4C61
:1005E000236825461A6812F0100F0ED010221A60E8
:1005F000FFF7E8FF2368D96A06F07CF92268936860
:1006000003F51C531033136238BD540707D5042279
:100610001A60FFF7D7FFBDE8384006F079B9D00778
:1006200007D501221A601A4A138801339BB213803E
:1006300038BD910715D502221A6004F051FE022838
:1006400009D006F005F92A689368D1690B4403F5CF
:100650007A73D36138BD2A68536923F00803536164
:10066000F1E712070ED50822AA211A604FF0804246
:100670001172552111729A6802F5B71202F558727B
:100680005A6238BD034829F05FF9FEE788C30720A6
:1006900084C30720FC130400014B1878704700BF87
:1006A00098C3072003490B6803604B6843608B685D
:1006B000836070478CC3072030B585B002F0DEFF41
:1006C000684602F083FF7C4C009B2360019B6360C3
:1006D000029BA360FFF7E4FDFFF73CFE774BB0FB06
:1006E000F3F03C28764B00F2A480292880F0AB8000
:1006F000142800F2A5803A221A6008239822714932
:1007000000200B764B768B7681F820306E4B83F889
:10071000052383F8062383F8072383F80823902210
:1007200083F80A2383F80B2383F80C23702283F8C1
:100730000E2383F80F23582283F8122383F8132300
:1007400083F8142383F81523782283F81923A02231
:1007500083F8002383F8012383F8022383F803231B
:1007600083F8042383F8092383F80D2383F81023E7
:1007700083F8112383F8162383F8172383F81823AB
:1007800083F81A2383F81B2383F81C2383F81E2382
:1007900083F81F2383F8202383F81D2383F8212364
:1007A00083F82223CB6823F4E0631B041B0C43F083
:1007B000BF6343F40033CB60FFF728FD61B662B638
:1007C0004FF4164000F098F8404802F029FA4048EB
:1007D00002F02CFA00233F4C194620680222806860
:1007E00029F010FA0023206802221946406829F0F7
:1007F00009FA02F035FA4FF08043374A304C5A601C
:1008000003221A70AA221A7255221A72D4F8803161
:10081000324D13F0010F1FD0314800F0B5F801231D
:100820002B70D4F8803143F00103C4F8803105B057
:1008300030BD50280AD964280BD945F23A025BE74B
:1008400041F23A0258E742F23A0255E743F23A02DD
:1008500052E744F23A024FE7D4F880319B0709D5BA
:10086000204800F091F802232B70D4F8803143F037
:100870000203DAE7D4F8803113F0040319D01A4BDD
:100880009A6C1A4B9A4208D1052319482B7000F034
:100890007BF80022144B9A64C9E7042315482B7097
:1008A00000F072F8D4F8803143F00403C4F88031CA
:1008B000EFE72B70BBE700BF8CC3072040420F005F
:1008C00000C00F4000ED00E000E100E07109010010
:1008D0005909010060C10720C0C62D0098C3072038
:1008E000E21404002515040000400240EFBEADDE16
:1008F000FF1404001C15040010B50446FFF72AFD80
:100900002401B0FBF4F025F0E9FD0022104B25F0A6
:10091000A9FC25F0E1FE012184B20320FFF76EFD62
:1009200001210320FFF784FD0A4B1A6822F0F00230
:100930001A601A6842F050021A608022A3F5003350
:100940001A73220A1A710322E4B21C701A7310BDC2
:100950000000E03F00C00240034A1368DB07FCD5FB
:10096000024B1878704700BF14C0004000C0004020
:10097000034B044A187013685B06FCD501207047CE
:1009800000C0004014C0004008B5411E11F8010F1E
:1009900020B90A20BDE80840FFF7EABFFFF7E8FFEB
:1009A000F4E7FFFF2DE9F84F1C4F04468846002B63
:1009B00018BF1F46914672B369B3436882689A4272
:1009C0001CD305685D1919D2A900C06829F028F860
:1009D000A668E0604FEA860AB5420ED9102002F000
:1009E00015F883461022002127F0FEFBE36801364C
:1009F00043F80AB00AF1040AEEE76560A368E2680A
:100A0000591C52F823300A9AA160C3F800905F6025
:100A1000C3F80880DA60BDE8F88F00BFC83604006C
:100A20002DE9F04F0C4693B080464FF0FF321F493E
:100A3000204603F0AFFA0025DFF87890DFF878A0C1
:100A4000DFF878B0D8F808309D4226D2D8F80C30BC
:100A500053F825707B68184601932AF067F8202820
:100A6000019B14D902AE3A685146304629F0F4F998
:100A70000A2130462AF0B0F8864202D2594629F0BF
:100A8000C5FA3146204603F0CFFA0135DAE73A6875
:100A90004946204603F0C8FAF7E74FF0FF32044911
:100AA000204603F08BFA13B0BDE8F08FBA150400AE
:100AB000ED150400E1150400CE150400FB1404003C
:100AC0002DE9F041054608460F46164600F03DFE6A
:100AD000002823DD0024AB689C421BD2EB6838461B
:100AE00053F82480D8F8001000F076FE80B1D8F8D2
:100AF00004305BB11A780C49002A18BF19464FF030
:100B0000FF323046BDE8F04103F058BA0649F6E737
:100B10000134E0E74FF0FF320449F2E7314628465E
:100B2000BDE8F041FFF77CBF3F15040063150400EA
:100B300038B50D460024284600F007FE844208DA46
:100B40002146284600F098FF0378202B01D001347D
:100B5000F1E72146284600F0E3FE2846BDE838408C
:100B6000014900F045BF00BFEB2904002DE9F04F1B
:100B70000C4691B0514906462046154600F058FFF4
:100B800020224F49204600F0AFFE074600284CD1F6
:100B90008146B368994556D34FF00009DFF82CB170
:100BA000B368994580F082802022F3680DEB020142
:100BB00053F8298003A800F0A1FDD8F8001003A87D
:100BC00001F00EF8002301AA594620460193029332
:100BD00000F0C4FD01A829F0A9FF012860D901A9EE
:100BE00003A800F06AFE8246002859D0D8F80020F9
:100BF00021463046FFF79CFFD8F80830D8F80C2083
:100C000029462046984760B94FF0FF322D492846C3
:100C100003F0D4F94FF0FF32D8F80410284603F05F
:100C2000CDF903A800F07EFD35E0254A2146304687
:100C3000FFF77EFF2A4621463046FFF741FF384640
:100C400011B0BDE8F08FF368202253F829802046C8
:100C5000D8F8001000F048FE8246F0B1D8F8002025
:100C600021463046FFF764FFD8F80830D8F80C204A
:100C700029462046984707460028E0D14FF0FF322A
:100C80001049284603F09AF94FF0FF32D8F80410C3
:100C9000284603F093F95746D1E709F1010978E7AF
:100CA00003A800F03FFD09F1010979E74FF0FF3299
:100CB0000549284603F082F9C1E700BF8815040002
:100CC0008B1504009015040063150400B51504008D
:100CD000002337B502AC44F8043D0D4D40B903463E
:100CE00002462146286803F0C5FC019803B030BDD8
:100CF0000A222146286803F0BDFC03460028F4D1EF
:100D000004490A8801320A804FF0FF32E9E700BF48
:100D1000A0C307209AC30720F0B50024ADF50D7DD0
:100D20000D4607460294FFF71BFC4FF47A7200232E
:100D300026F05CF84FF409720646214603A827F016
:100D400053FA002D38D012221C4903A807F0AAF844
:100D5000044668BB069903A807F020FB044630B997
:100D600002AB2A46394603A807F0EBF9044603A86C
:100D700007F002FBFFF7F4FB4FF47A72002326F032
:100D800035F80F4B801B1A889042029A88BF188052
:100D900095420CBF0126002606D0059B21460093F4
:100DA00008482B4628F00AFD30460DF50D7DF0BDB4
:100DB000054828F003FDDDE72C46DBE77F1604003D
:100DC000A4C307209D160400891604002F4B2DE9AB
:100DD000F74F1D68DFF8BC902E46DFF8BCA005F584
:100DE0008068002302AF47F8043D4EF66022394682
:100DF000D9F8000003F03EFC08B1019B2BB9711B30
:100E00002846FFF789FF2E46EBE7D9F8000003F0EC
:100E1000FFFCBAF80030019C0130984288BFAAF864
:100E20000000204629F082FE0A230021235400F10D
:100E3000010B019A06EB0B0402F80B10A045019977
:100E40001FD8A8EB0602304627F0A9F9A4EB080446
:100E50004FF480612846FFF75FFF3CB10199ABEB8F
:100E6000040B22465944284627F099F92C44084897
:100E700000234FF0FF323946006803F0F3FA2646AC
:100E8000AFE75A46304627F08AF9F0E7BCC307209F
:100E9000A0C30720B8C307209CC3072073B502ACCA
:100EA00044F8040D0D4649B100234FF0FF322146AE
:100EB0000A48006803F0D6FA02B070BD064629F071
:100EC00035FE0A233354019B411C5D540198FFF702
:100ED00023FF2B462A4621460148EAE7B8C30720EC
:100EE000A0C3072007B504F0FBF902280CD1084B7A
:100EF0001B684BB10023074802A941F8043D4FF09D
:100F0000FF32006803F0AEFA03B05DF804FB00BFE7
:100F1000BCC30720B8C3072003289ABF024B53F86D
:100F200020000020704700BFA8C30720014B18888D
:100F3000704700BF9AC30720014B1888704700BF55
:100F4000A4C30720014B1888704700BF9CC307202B
:100F50002DE9FF412B4C80462568002D4AD14FF4E6
:100F60008060039527F0A2F8274E2060A8B920687A
:100F7000002842D1336863B10A24002303A91A462A
:100F8000306803F077FB10B1039827F097F8013C25
:100F9000F3D11E4828F0D8FC2CE02A4604210A2070
:100FA00003F03EFA1A4F2A46386004210A2003F063
:100FB00037FA3B683060002BD9D00028D7D00A25FB
:100FC000962027F073F803900028D0D0002303A9BF
:100FD0001A46306803F046FA013DF1D10195CDF88B
:100FE00000802B464FF4C0720A490B4803F0AAFC5C
:100FF0000028BCD004B0BDE8F08127F05FF80023E2
:101000002360B7E7BCC30720A0C307203316040042
:10101000B8C307202C160400CD0D0100012303FAEC
:1010200000F0044B1A7811B110431870704722EA8F
:101030000000FAE78CC007202DE9F04F9A46454B97
:1010400097B01B6806460C461546002B7CD00FA8AF
:1010500002F0BCFAFFF784FA4FF47A72002325F00D
:10106000C5FE814604F03CF93B4B821ED2F10008DC
:1010700016AF48EB02080FCB07E90F00002C66D033
:101080002F21204629F0A8FD20B95C21204629F017
:10109000A3FD00B1441CDFF8D4B04046002D08BFCA
:1010A0005D46FFF715FE9DF83E1095F800C001F073
:1010B0001F0E9DF83D109DF8412001F03F010B915E
:1010C0009DF83C109DF8403001F03F010C9116A9AD
:1010D00001EB860151F8101C03F01F030D911F490D
:1010E000CDF800E0BCF1000F08BF594607910D99FB
:1010F00002F00F0204910C99CDF820A002910B99F7
:101100000695019105941649CDF80C90074628F0F4
:10111000A3FE21ABC0F19501209A38440E932BF029
:101120004FF9104A414652F826303846013342F80A
:101130002630FFF7B3FE0C4B1B7843FA06F6F30795
:1011400002D5384628F000FC17B0BDE8F08F074CF8
:10115000A1E700BFBCC307201C160400EE17040063
:1011600058160400A8C307208CC00720C836040006
:101170000FB40E4B37B51B6893B104F0B1F8831E62
:101180005C425C412046FFF7A3FD054607AB952175
:10119000069A01932BF014F921462846FFF77EFEAC
:1011A00003B0BDE8304004B0704700BFBCC30720A7
:1011B000002313B50C4602A941F8043D006803F072
:1011C00025FA019B1BB1236843F001032360012032
:1011D00002B010BD30B5044685B001A80D4602F03E
:1011E000F5F99DF80630227903F01F039A421BD1CE
:1011F0009DF80530627903F03F039A4214D19DF8BF
:101200000430A27903F03F039A420DD1002304A9D0
:1012100041F8103D2368186803F0F8F9009B1BB1F2
:101220002B6843F001032B60012005B030BDFFFFA8
:1012300030B50025234A87B01378234C43F00103CF
:10124000137003A8029502F0C1F92B46009502AA7B
:101250001E49206800F01BFD9DF80C3013F03F0381
:101260001BD1009302AA1949606800F010FD9DF897
:101270000D3013F03F0310D1009302AA1349A06868
:1012800000F005FD9DF80E3013F01F0305D100930B
:1012900002AA0E49E06800F0FAFC00230C48009313
:1012A00002AA0C49006800F0F2FC029B3BB14FF02F
:1012B0008052094B1A60BFF34F8FBFF36F8F07B097
:1012C00030BD00BF00400240C0C30720B111010083
:1012D000D0C30720D511010004ED00E001207047C4
:1012E0000120704701207047936810B4013B002B28
:1012F000936008DA9469A34202DBCBB20A2B02D1D5
:1013000010BC2BF099B81368581C10601970C8B243
:1013100010BC70470A4B70B51B780D467BB1094E67
:10132000441E14F8011F21B130688268FFF7DCFF0A
:10133000F7E725B12846BDE8704028F005BB70BD31
:10134000D8C3072060C1072070B50C460B4E451E60
:1013500015F8011F21B130688268FFF7C5FFF7E774
:1013600024B12046BDE8704028F0EEBA034B0A21B4
:10137000BDE8704018688268FFF7B6BF60C10720FB
:101380003F4B2DE9F7431A68036904469A4236D168
:1013900000273D4600213B48FFF7BCFF3A49606A01
:1013A000FFF7B8FF00213948FFF7B4FF384BDFF8EB
:1013B000EC901E688EB1D6F800800137D8F8003066
:1013C00040461B69766898470028F3D14946D8F80B
:1013D0002400FFF7B9FF0125ECE755B92D4EAF42C8
:1013E0000DD0002330681A46194603F03BF801354A
:1013F000F5E731462848FFF7A7FF03F0D1FB0023AC
:1014000024484FF0FF321946006803F033F903F027
:10141000DFFB02AE46F8040D03F0DAFB0546DFF809
:101420008080606818B1E16803F0FDF9A06023686E
:10143000A16A5B6920469847074630B9606A414611
:10144000FFF782FF384603F067FDA3690133A3610C
:10145000236A1BB103F0BCFB854206D3E169002976
:10146000DFD0304603F0B8FCDBE703F0B1FB256AC0
:101470000544206903F024FF80006061EEE700BFAF
:10148000E8C30720BE180400C2180400EF180400C7
:10149000D4C30720E4C30720351904001C19040035
:1014A0005D1904002DE9F74F594D8046296839B977
:1014B0005848FFF749FF0124204603B0BDE8F08FEC
:1014C0004FF000094C4600215348FFF723FFDFF897
:1014D00078B12E68DFF874A1CEB13768766807F16D
:1014E0001003FA6A019397F83030C2F38F02009329
:1014F000796A3B46584609F1010903F023FA0028AE
:10150000EAD15146786AFFF71FFF0124E4E731462C
:10151000484602F09EFF414B186020B931464048D2
:10152000FFF712FF012400213E48FFF7F3FEDFF82A
:1015300020912E686EB1376876683B6838469B68A4
:1015400098470028F6D14946786AFFF7FDFE012446
:10155000F0E731463448FFF7DDFE2F6887B3C0CF90
:1015600033683046DB68984700284CD0B8F1000F4C
:1015700023D04FF001094FF0020A706A01F0C8F958
:10158000042306F1140229498DE80006834600F081
:10159000B1FD8DE8000600284FF0040306F11802A3
:1015A0002349584608BF4C4600F0A4FD28B92149FC
:1015B000706AFFF7C9FE0124D0E7002CCED0F6E711
:1015C00039461D48FFF7A6FE1C491D4826F0FCF8C9
:1015D000064620B100F098FC304625F065FE00215B
:1015E0002A680D46174B186842B117685268FE6AA0
:1015F000B542F9D2386935460121F5E700293FF4B3
:101600005BAF186058E7B8F1000FD0D04446B0E7A0
:10161000D4C3072091170400BF170400E4C30720B8
:10162000F11704001418040043180400681804009B
:10163000731804007D180400A1180400275F04003B
:101640007B420400E8C3072081130100D617040081
:101650002F18040010B5044638B1082001F0D6F95F
:10166000024B04601A681860426010BDD4C30720A2
:101670000B4B10B518700846FFF714FF044658B915
:1016800001460848FFF746FE03F058FA214606488F
:10169000BDE81040FFF758BE00210448F8E700BF3E
:1016A000D8C307201C170400371704005B17040079
:1016B00070B50B4D4FF47A76056000254560856066
:1016C000056145618561C5614EF6602541620499F9
:1016D000C66005628162C26280F8303070BD00BFB2
:1016E00004170400044B1A6890423ABF5B6853F831
:1016F00020000020704700BFDCC3072010B5012385
:10170000044623700023002AD4BF1A4602F1FF3298
:10171000A1600846E36023616260002126F064FD59
:10172000204610BD38B50446806818B123780BB93F
:1017300026F0C4FCE56835B12846FFF7F3FF142115
:1017400028460CF0FAF8204638BD806829F0EEB93A
:1017500040687047002283681A7070470EB403B562
:1017600003AA52F8041B806801922AF05BFE02B0C3
:101770005DF804EB03B070470CB4F7B5002408AB78
:1017800002AD53F8047B45F8044D2A4680680E46A6
:1017900000932AF002F978B13B1B002B0CDD009B73
:1017A0001A1D1B68009203B118602A4631460020BA
:1017B0002AF0F3F80134EEE7204603B0BDE8F0402C
:1017C00002B0704708B50B468168184628F012FC35
:1017D000B0FA80F0400908BD08B5806828F0CFFB5A
:1017E000B0FA80F0400908BD2DE9F74F0F788A461E
:1017F000A7B34FF0FF35866833788BB333787BB36C
:1018000038462AF043FA0146304628F0E5FB38B95D
:1018100038462AF048FA0146304628F0DDFBE8B1A8
:101820000446851B0AF10108461C14F8010FC14645
:1018300088B198F800B008F10108BBF1000F0AD098
:101840002AF024FA019058462AF020FA019B83429C
:10185000EBD04FF0FF3599F80030CEE74FF0FF3571
:10186000284603B0BDE8F08F08B5FFF7BDFF013093
:1018700018BF012008BD10B58468204629F0BFF9C3
:1018800008B1001B10BD4FF0FF3010BD70B504460D
:1018900008460D4629F04AF906462046FFF755FF4F
:1018A000864208DC32462946A06829F06EF9B0FA73
:1018B00080F0400970BD002070BD70B50546084637
:1018C0000C4629F033F906462846FFF73EFF8642CC
:1018D00008DC3246A968204629F030F9B0FA80F0D9
:1018E000400970BD002070BDF8B5044608460E469C
:1018F000174629F01BF905462046FFF726FF8542CB
:101900000CDCA368314620465D5DFFF7D6FF30B1A1
:10191000BD4204D0B5FA85F04009F8BD0020F8BDFD
:1019200038B50C460546FFF710FF002C024609DDCE
:10193000A04207DBA868121B0132011926F03AFC0D
:10194000012038BD002038BD38B50C460546FFF7EC
:10195000FCFE0023A042A1BFAA68001B1354012073
:10196000B8BF184638BD70B50D4606461446FFF799
:10197000ECFE002D11DBA8420FDD002C0DDD421B1B
:101980009442A8BF1446B068121B2C4401190132BE
:10199000284426F00FFC012070BD002070BD70B5FA
:1019A00005460E46FFF767FF431C044609D0304644
:1019B00029F0BCF8214602462846BDE87040FFF7F2
:1019C000D2BF002070BDF8B585680F462B460024B5
:1019D000591B13F8016B3EB1BC4203D09642F7D1BC
:1019E0000134F5E7FFF79CFF201C18BF0120F8BD6C
:1019F000F8B506460D46FFF7A8FE00240746BC4290
:101A00000EDA284629F092F82B465A1B904207DD41
:101A1000B16813F8012B095D9142F6D10134EEE76C
:101A20002CB121463046BDE8F840FFF779BFF8BD3C
:101A3000F8B5054608460C4629F078F807462846CA
:101A4000FFF783FE0026013800280DDB23461A1B12
:101A5000974209DDAA6813F801EB1118125C724570
:101A6000F5D10E700138EFE7F8BDFFF7ABBE806827
:101A70007047806825F068BB38B50C460546FFF70F
:101A800064FEA042A868C8BF001938BD037870B5CD
:101A90000546FBB9B1B10131102491FBF4F4AE68F5
:101AA000013424016C607EB9204626F0FFFAA8605C
:101AB00018B12246314626F097FBA868003018BFBF
:101AC000012070BD0421E7E7611C304627F0A8FF24
:101AD000A860F2E7002070BD0022027042608260C0
:101AE000C2600261FFF7D2BF10B50446FFF7F4FFF2
:101AF000204610BD43688B4201DAFFF7C7BF0120C3
:101B000070470EB4F3B50646002407AB53F8047BC8
:101B10000093B06880B17568009B01353A4629464C
:101B200001932AF04DFC8542044605DC411C3046F9
:101B3000FFF7E0FF0028ECD1204602B0BDE8F040FE
:101B400003B0704738B505460C46FFF7FEFD6B68DD
:101B50002118994205DD2846BDE838402031FFF7BD
:101B600095BF012038BD70B5054608460E4628F0E1
:101B7000DDFF01462846FFF7E5FF044618B1314670
:101B8000A86828F01AFA204670BD002307B5ADF802
:101B9000043002AB03F8041D1946FFF7E4FF03B05D
:101BA0005DF804FB70B5044608460D4628F0BEFFFC
:101BB0006368014698420DDD2046FFF767FF064641
:101BC00040B962682946A06828F0F1FFA2686368FE
:101BD000D65470BD2946A068BDE8704028F016BAFA
:101BE000FFF7E0BF08B50C2026F060FA18B100231B
:101BF00003604360836008BD00B18068704738B5FA
:101C00000D46044608B9002038BD082026F04EFADB
:101C10000028F8D0002343602368056033B92060B2
:101C2000A36860600133A360012038BD6368002BA6
:101C3000F6D05860F4E798B12AB121B1106878B1B4
:101C40004368136008E0006841B100B9704740681C
:101C50000139F9E7002AF3D1006870470028F9D16B
:101C60007047F8B50D4616461F4608B90020F8BD66
:101C70000029FBD00468002CF8D0069B3A46314678
:101C80002068A84708B92068F8BD6468F3E7F8B58C
:101C90000D4616461F4608B90120F8BD0029FBD0A5
:101CA0000468002CF8D0069B3A4631462068A847C5
:101CB00008B16468F5E7F8BD10B5044603F0ACFC64
:101CC000013C14F8010F18B9BDE8104003F0B4BC92
:101CD000FEF74EFEF5E70FB470B54FF48075C2B055
:101CE00046AC54F8046B2A46002102A826F07CFA80
:101CF00023463246294602A801942AF061FB044695
:101D000002A8FFF7D9FF204642B0BDE8704004B0FA
:101D1000704770B50646FEF723FC841941F10005B3
:101D2000FEF71EFCA94208BFA042F9D370BD08B55A
:101D300003F0D6FA831E5842584108BD10B5044638
:101D4000FFF7F5FF20B12046BDE8104003F070B862
:101D50004FF47A706043BDE81040FFF7DABFFFFF31
:101D60002DE9F0430646C1B0154698460C460029B9
:101D700050D0114647680068A04729462648A0472A
:101D8000B2682649684628F067F829466846A047A1
:101D9000F2682249684628F05FF829466846A0475D
:101DA0001F49327C684628F057F829466846A04704
:101DB000B8F1000F0FD069464FF48072304600F042
:101DC000F9FA29466846A04716482946A047012047
:101DD00041B0BDE8F0833A781349684628F03CF8F2
:101DE00029466846A047B368F668DFF840905E432E
:101DF00007F101080136A6EB08033B44012BE3D9A8
:101E0000494618F8012B684628F026F82946684606
:101E1000A047F0E70846DBE7754304008D1904008E
:101E200092190400C736040097190400961904009B
:101E300070B50D46044628F079FE2B460246012176
:101E40002046BDE8704025F0B1BEFFFFF0B50C465E
:101E500087B017461D46064648B341B310220021FD
:101E600002A826F0C1F97068FFF7C6FE11490246C4
:101E700002A827F0F1FF29460F48A04729463068FD
:101E8000A04729460D48A047294602A8A047009729
:101E90002B4622460A497068FFF7F9FE2946094891
:101EA000A04729463068A04729460748A04707B001
:101EB000F0BD00BF633D04009C190400754304009D
:101EC000611D0100A3190400C73604004B688A682D
:101ED0000968FFF7BBBFFFFF1FB501900291039296
:101EE00001A90022024800F049FD05B05DF804FB9D
:101EF000CD1E01000B4619B100220249FFF7A6BF13
:101F0000704700BF311E01002DE9F04FC9B008AE87
:101F1000054680220021304626F066F90024DFF8CD
:101F20009CA12A467F21304625F020FB18B9204687
:101F300049B0BDE8F08F6049304628F060FE864227
:101F4000EFD13A2128F048F800F101083A21404643
:101F500028F042F807460028E3D0002303704046EB
:101F600000F0C4FC01900028DBD0781C25F0ECF8D0
:101F700080460DF1A009B8F1000F01D10124D0E78E
:101F8000002480220021484626F02EF927462846C4
:101F900025F082FA431C19D03A2819D10137032FB2
:101FA00016DD002407AA51464846079429F0F5FC9F
:101FB00007AA51460746204629F0EFFC07AA8346A8
:101FC0005146204629F0E9FC04463FB90024AEE71B
:101FD00009F8040001347F2CD9D1E2E7BBF1000FEE
:101FE000F4D00028F2D0584625F0AEF883462046BB
:101FF00025F0AAF8394600FB0BFB019800F0B8F871
:1020000080B18268C36853439B450BD1476807EB97
:102010000B034FF0FF3B0393039B9F4205D1BBF1A2
:102020000A0FD3D108F1FF38A5E7284625F034FA86
:102030000446284625F030FA0290284625F02CFA6E
:10204000B0F1FF3F8346C1D025F0B6FFE3B25A1C82
:10205000815C480712D5303C25F0AEFF9DF8083072
:10206000E4B25A1C815C24014907E4B215D5029BF5
:10207000303B1C44E4B207F8014BCDE705930492D2
:1020800025F09AFF049A059B825C02F00302012A64
:1020900008BF2033A3F15704DEE70492029325F032
:1020A0008BFF049A029B825C02F00302012A08BFA4
:1020B0002033573BDDE700BF9C1904007543040043
:1020C00008B542684B689A4207D00968006827F053
:1020D00091FF003018BF012008BD002008BD08B5E1
:1020E0000B460168184627F085FF003018BF012015
:1020F00008BDFFFF2DE9F743894690461F46BDF80E
:102100002850064620B90025284603B0BDE8F083D4
:102110000029F8D0002AF6D0002BF4D0142025F0A6
:10212000C5FF04460028EED09DF82C30002D037426
:1021300008BF01250023C560C0F80090C0F80480E6
:1021400087600093024609497068FFF7A0FD0546C5
:1021500018B9204625F0B2FFD6E721467068FFF790
:102160004EFD05460028CFD1F3E700BFC120010096
:1021700013B50A4640B149B10C78002344B100932D
:1021800004494068FFF76DFD02B010BD0846FBE74B
:102190002046F9E7DF20010037B50D4600F0A6FB29
:1021A00048B155B12C7800234CB100932A4605491B
:1021B0004068FFF756FD03B030BD2846FBE72046D8
:1021C000F9E700BFDF2001002DE9F3471446FFF7D0
:1021D000E3FF8046002800F0DF8098F810300430DC
:1021E000013B85C807FB0207072B00F2D580DFE81B
:1021F00003F0224B70ABD395D30405464FF0000992
:10220000674EBD4228D22146304628F0F8FC221AFB
:10221000D8F8043050425041187023461A781C46B2
:10222000013312B12C2AF9D11C46D8F808304FF0EE
:1022300001091D44E5E700230646994602ADDFF893
:1022400064A145F8043DBE4206D22A4651462046C6
:1022500027F026FE012803D0484602B0BDE8F087EB
:10226000D8F808202946304625F099FF23461A78E9
:102270001C46013312B12C2AF9D11C46D8F808307B
:102280004FF001091E44DEE700230546994602AEE1
:10229000DFF814A146F8043DBD42DDD23246514676
:1022A000204627F0FDFD0128D6D1D8F80820314678
:1022B000284625F074FF23461A781C46013312B1D4
:1022C0002C2AF9D11C46D8F808304FF001091D44DA
:1022D000E2E74FF00009054602AEDFF8D0A006F8AD
:1022E000049DBD42B8D232465146204627F0D8FD63
:1022F0000128B1D1D8F808203146284625F04FFFF3
:1023000023461A781C46013312B12C2AF9D11C46F7
:10231000D8F808304FF001091D44E2E7002125F00C
:1023200063FF204628F002FCD8F80830D8F80450A3
:1023300098420246214628BF03F1FF32284625F085
:102340002EFF4FF0010987E7002305464FF00009F3
:1023500002AEDFF85CA046F8043DBD42BFF47CAF9E
:1023600032465146204627F09BFD01287FF474AF8A
:10237000D8F808203146284625F011FF23461A7860
:102380001C46013312B12C2AF9D11C46D8F808306A
:102390004FF001091D44E0E74FF000095CE700BF82
:1023A0005F1A0400CE190400061A0400251A04005E
:1023B000521A0400037C2DE9F74F013B05460C46F9
:1023C0001646072B00F2F781DFE813F008008B00B8
:1023D0000D017801D40147012A014E018368012BC8
:1023E00020D14768CA4A97F900303146204627F085
:1023F000FFFCDFF85493C7F1010807EB0803EA6814
:102400009BB2934203D3012003B0BDE8F08F204676
:1024100028F08CFB17F9013F311A4A46204427F077
:10242000E7FCEAE7022B1BD1D0F80480B94AB8F9DF
:1024300000303146204627F0DBFC0127DFF8089307
:10244000EB689F42DFD2204628F070FB0137311A3B
:1024500038F9023F4A46204427F0CAFCBFB2EFE7F2
:10246000042B1BD1D0F80480AB4AD8F80030314699
:10247000204627F0BDFC0127DFF8D092EB689F4291
:10248000C1D2204628F052FB0137311A58F8043FD8
:102490004A46204427F0ACFCBFB2EFE7082B40F0DF
:1024A0008A81D0F804803146D8E900232046CDE95E
:1024B00000239A4A27F09CFC0127DFF89492EB68EE
:1024C0009F42A0D2204628F031FBF8E90223311ABE
:1024D000CDE9002320444A46013727F089FCBFB2EA
:1024E000EDE78368012B1CD147688D4A3B78314664
:1024F000204627F07DFCDFF85C92C7F1010807EB6E
:102500000803EA689BB29342BFF47DAF204628F0EF
:102510000DFB17F8013F311A4A46204427F068FCAA
:10252000EDE7022B1CD1D0F804807E4AB8F80030C9
:102530003146204627F05CFC0127DFF81892EB6853
:102540009F42BFF460AF204628F0F0FA0137311AFD
:1025500038F8023F4A46204427F04AFCBFB2EEE773
:10256000042B1CD1D0F804806F4AD8F800303146D3
:10257000204627F03DFC0127DFF8DC91EB689F4205
:10258000BFF441AF204628F0D1FA0137311A58F88C
:10259000043F4A46204427F02BFCBFB2EEE7082B4D
:1025A00040F00981D0F804803146D8E90023204664
:1025B000CDE900235D4A27F01BFC0127DFF89C9141
:1025C000EB689F42BFF41FAF204628F0AFFAF8E94E
:1025D0000223311ACDE9002320444A46013727F06F
:1025E00007FCBFB2ECE74768514A3B7831462046CA
:1025F00027F0FEFBDFF86891C7F1010807EB08033D
:10260000EA689BB29342BFF4FEAE204628F08EFAF1
:1026100017F8013F311A4A46204427F0E9FBEDE75D
:102620004768444A3B783146204627F0E1FBDFF813
:102630003491C7F1010807EB0803EA689BB29342A3
:10264000BFF4E1AE204628F071FA17F8013F311AC5
:102650004A46204427F0CCFBEDE74368364A314632
:10266000204627F0C5FBCEE6D0F804A0334F9AF8F9
:102670000030DFF8F480324A002B14BF3B4643465B
:102680003146204627F0B4FBD146DFF8E0B0CAF16E
:1026900001034B44EA689BB29342BFF4B4AE2046B8
:1026A00028F044FA19F8013F311A002B14BF3B46B9
:1026B00043465A46204427F09BFBE8E7D0F80490B5
:1026C0000127D9F8000023F02BFF1E4ACDE90001B5
:1026D0003146204627F08CFBDFF894A0EB689F4240
:1026E000BFF491AE204628F021FAA6EB000B04EBD4
:1026F000000859F8040F23F013FF0137CDE900015A
:1027000052465946404627F073FBBFB2E6E700BF8A
:10271000AE190400BA190400C3190400D219040048
:10272000E3190400F0190400FA1904000A1A04005D
:102730001C1A0400281A0400321A04005F1A04004C
:102740003C1A0400481A0400B6190400CD1904000C
:10275000DD190400EC190400051A0400161A04001F
:10276000241A0400251A0400A8190400441A0400BD
:10277000511A0400D0F804803146D8E900232046DD
:10278000CDE900230D4A27F033FB0127DFF8309015
:10279000EB689F42BFF437AE204628F0C7F9F8E94E
:1027A0000223311ACDE9002320444A46013727F09D
:1027B0001FFBBFB2ECE7002026E600BF551A04005D
:1027C000511A040038B514461D46FFF7E5FC28B140
:1027D0002A462146BDE83840FFF7ECBD38BD2DE95B
:1027E000F34100240746904601940D4629B120B1DB
:1027F0007868FFF701FA844202D302B0BDE8F081A5
:1028000001AA21467868FFF716FA78B1C36886688E
:102810005E43B8F1000F06D02B684168324608EBE2
:10282000030025F0BCFC2B681E442E600134DFE75A
:102830002DE9F74300248846174601940646C0B1A7
:102840007068FFF7D9F9844213D201AA2146706853
:10285000FFF7F1F990B1C3688568D7F800905D4340
:1028600041682A4608EB090025F08AFC20B10023C4
:102870003B6003B0BDE8F0834D443D600134DFE7C9
:1028800007B5002202A941F8042DFFF7A8FF01981F
:1028900003B05DF804FB07B5002202AB43F8042D3A
:1028A0000A461946FFF79BFF019803B05DF804FB49
:1028B000002307B502AA42F8043DFFF7B9FF0198CB
:1028C000003018BF012003B05DF804FB10B50C46C2
:1028D00011461A46A047012010BD08B5006827F030
:1028E00089FB003018BF012008BDFFFF07B500239A
:1028F00030B102460448009304490068FFF7B1F97B
:1029000003B05DF804FB00BFECC30720DB28010027
:10291000F8B5064610B900242046F8BD0378002B10
:10292000F9D0154D2B6813B9FFF75CF928603046D4
:10293000FFF7DCFF07460028EDD1082025F0B6FBA5
:1029400004460028E7D080E8C000FFF74BF960603C
:1029500018B9204625F0B2FBDDE728682146FFF7CD
:102960004EF905460028D7D1606825F0A7FB204620
:1029700025F0A4FB2C46CFE7ECC3072007B50B4698
:1029800030B100920246044804490068FFF77FF91D
:1029900003B05DF804FB00BFECC30720CD280100A5
:1029A000124B30B51A68014612B94FF080521A60C6
:1029B00018680F4A44180F4D2244AA4297BF0E4A86
:1029C0001C60881818601C6898BF10460B4A944217
:1029D00082BF01321A60002039B1094A13680133FD
:1029E0001360084B1860084B196030BDF8C307200E
:1029F000FF7FFFEFFE3F071064DF0720FF3F082047
:102A0000F0C30720F4C30720FCC3072025F04EBB0A
:102A100025F04CBB25F052BB25F050BB30B5044629
:102A20008BB0684625F044FE214B224D2360089B65
:102A3000214AA360079B636053B913681F498B4207
:102A40008ABF03F1604303F17043A3F5E823636099
:102A500000236168E360B1F5803F82BF01F17041FE
:102A6000A1F5E82161601168144A914213D8C5F1BB
:102A70000053521A03F504231A44E2602046104B17
:102A8000E1611B68A3610F4B1B6863610E4B1B6800
:102A900023610BB030BD0D4B9942EFD8C1F180439B
:102AA00003F580135B1B002BC8BFE360E6E700BFA4
:102AB000641F000064DF0720F8C3072000800010B7
:102AC000F4C30720FCC30720F0C30720FF3F082002
:102AD0000020704730B504468DB0A8B30025684685
:102AE00000F074FD9DF8003003A803F03F0303934A
:102AF0009DF801300B9503F03F0304939DF80230DD
:102B000003F01F0305939DF8043003F01F030693A1
:102B10009DF8053003F00F03013B0793BDF8063025
:102B2000C3F30B03A3F26C7308939DF8033003F017
:102B300007030993BDF80830C3F30B03013B0A9365
:102B400025F03AFC84E8210000200DB030BD02F0F1
:102B500063BD02F071BD033808B50A2822D8DFE84A
:102B600000F02106060D19151D191121210024F070
:102B700043FB022303604FF0FF3008BD24F03CFB11
:102B80001623F7E724F038FB1323F3E724F034FB94
:102B90001123EFE724F030FB0D23EBE724F02CFBAF
:102BA0000923E7E724F028FB0523E3E7431C70B57E
:102BB0000E4906D00E4B1B68984202D10A68104697
:102BC00070BD00231C460B4D0B60062B1A4606D029
:102BD000531C05EB031656F8106CB04204D104B137
:102BE0000A60034B1860EAE70124EEE770C407208F
:102BF00090C0072010C40720084B10B50446186881
:102C000018B1836B0BB924F0FBFC24B1012C02D06A
:102C1000022C18BF203C204610BD00BF60C1072019
:102C2000014B1860704700BF08C40720014B1860B3
:102C3000704700BF04C4072008B5024826F084FE90
:102C4000FEE700BF7E1A040008B5024826F07CFEAD
:102C5000FEE700BF641A040000207047012070479F
:102C600070B50A4B1D7885B90126094C60222946AA
:102C700020461E7025F0B8FA4FF0FF33236323641B
:102C80002365022325602661236270BD0CC40720E2
:102C900010C407202DE9F74389461446FFF7ACFF1F
:102CA0000546FFF783FF062806D124F0A5FA09237D
:102CB00003604FF0FF3016E01B4E0701F3199B68CD
:102CC000DB07F2D4002D11D001DB052DF1DDF31966
:102CD000D8680028EDD001AB2246494605F079F9C5
:102CE000F8B1FFF738FF03B0BDE8F0830F4B1A6867
:102CF000984632B14D46A5EB09039C420ADC24EA12
:102D0000E475601B0028D4DB3E447368201A03443A
:102D10007360E8E7D8F800300020984705F8010B09
:102D2000E9E70198201AEDE710C4072004C4072042
:102D3000F8B50E461746FFF75FFFFFF737FF062887
:102D400004D0124C05016219D06830B924F054FA4D
:102D5000092303604FF0FF30F8BD3FB9314605F05D
:102D60001DFB70B1BDE8F840FFF7F5BE012F02D1A1
:102D700081683144F3E7022F01D1C168F9E70920E6
:102D8000F0E76319DA6890685860F8BD10C407204E
:102D90002DE9F3410F461446FFF72EFF0646FFF7D5
:102DA00005FF0628054604D124F026FA092303600E
:102DB00006E0052E26D80120B04010F0390F02D0D1
:102DC0004FF0FF302CE010F0060F1BD0174E30688C
:102DD00030B1B846A8EB07039C420EDC24EAE4704D
:102DE000201A431CECD0A042EAD0114B201A03EB6E
:102DF00005135A6802445A6012E0336818F8010B50
:102E00009847E7E70A4B03EB0513D8680028CBD0B7
:102E100001AB2246394605F094F920B1FFF79BFE3D
:102E200002B0BDE8F0810198DAE700BF08C40720CE
:102E300010C407200EB42DE9F84107464FF0FF30CB
:102E4000079DFFF7B3FE0628064609D124F0D4F902
:102E5000172303604FF0FF30BDE8F84103B070471F
:102E600028074349384648BF25F4806527F0C2F853
:102E7000002876D03F49384627F0BCF8002872D0A9
:102E80003D49384627F0B6F800286ED005F4C063F7
:102E9000B3F5C06F01D1A9070DD105F42063B3F5D7
:102EA000206F39D015F4007238D1022D04D924F0E6
:102EB000A3F91623CDE7082215F0030330D142F021
:102EC000010424F099F9052303602C4B03EB061849
:102ED000D8F80C00C0B94FF40971012024F07CF936
:102EE000C8F80C000028B5D0E2B2394604F0DAFF89
:102EF00010B9B41D621C1DD1FFF72DFE1F4B03EB53
:102F00000613D8680028A5D025F0D8F81B4B03EB92
:102F100006160023F3609DE70022CDE71022CBE7E1
:102F2000012B02D142F00204CBE7022BBFD142F0C9
:102F30000304C6E7002CE1DB104A3301D718D45054
:102F400000237B602B07BD6008D5F868C16805F0D9
:102F500025FA0028D2D1FB689B687B6004F1200031
:102F60007AE70324E8E70424E6E70524E4E700BF62
:102F7000981A0400A31A0400AE1A040010C4072013
:102F800038B5FFF739FEFFF711FE062806D124F009
:102F900033F9092303604FF0FF3038BD4FF0FF32A3
:102FA0000B4B00011C181A50E06808B9002038BD0E
:102FB00005F0E2F90546E06825F080F80023E360BB
:102FC000002DF3D02846BDE83840FFF7C4BD00BF50
:102FD00010C4072008B524F00FF9582303604FF000
:102FE000FF3008BD074B1B689A68824207D05A68B9
:102FF000824204D0DB681B1A5842584170470120B6
:10300000704700BF60C1072070B5174B0E465C6962
:10301000164B05461A6C1A2022F470021A641A6CB8
:1030200004F4406442F420021A64996E41F4406151
:103030009966196821F470011960196841F420013A
:1030400019600321FDF7F4F9FDF784F9B4F5406F39
:1030500006D13246C1082846BDE8704000F038BDB0
:10306000012300206B7170BD00C0092000C0024028
:1030700010B50446024900F003FD204610BD00BF14
:1030800000000A4038B5074C236833B91C20FFF70D
:10309000BDFC0546FFF7ECFF25602068BDE8384021
:1030A00000F0F0BD74C4072070B590F853508AB09A
:1030B000044605B9457C284603F03CF8002294F804
:1030C000523084F8522094F8542006460092012190
:1030D00004F13A02284602F05BFE044670B1314624
:1030E00002A803F0ADFB48B19DF80C3003F0C0031B
:1030F000C02B03D19DF80830AB4200D000242046FD
:103100000AB070BD10B50446024B036000F0D8FF52
:10311000204610BD1C1B040010B50446FFF7F2FF4B
:10312000204658210AF009FC204610BD10B590F841
:103130005240621CD2B20444172A80F8522084F80C
:103140003A1002D903689B689847012010BD70B5FA
:103150000E46037E90F8311004469942B4BF012513
:1031600000250BDB1146113003F062FB30B1002368
:10317000257E84F83130ED1A18BF01253DB194F851
:1031800031305A1C84F831201C44637E3370284649
:1031900070BDFFFF70B5044600F082FF0C4B0025A8
:1031A000236021260323324684F85430294684F8CC
:1031B000535004F1110025F017F83246294604F166
:1031C000320025F011F8072002F0B2FC204670BD55
:1031D0001C1B040008B5044B1B689847034A137A6C
:1031E00043F00103137208BD78C4072000000B40B0
:1031F00010B50446024B036000F062FF204610BD8C
:10320000C81B040010B50446FFF7F2FF20462C212E
:103210000AF093FB204610BDF7B50D460D49044654
:103220000868164620F0F000086008681F4640F065
:103230005000086001210320FDF7FAF8FDF78AF835
:103240000097014633462A46204600F04BFE03B065
:10325000F0BD00BF00C0024010B50446034900F0B5
:103260002DFE034B2046236010BD00BF00C0004070
:10327000841B040038B5074C236833B92C20FFF7B2
:10328000C5FB0546FFF7E8FF25602068BDE838402C
:1032900000F0B4BD7CC4072010B50A4C23681BB9EC
:1032A000012001F061F9206002F01AF8022808D12B
:1032B000002320684FF0FF32BDE81040194601F0AE
:1032C000D9B910BD80C4072010B502F009F8022852
:1032D00008D1BDE81040002303481A46194600688B
:1032E00001F0C0B810BD00BF80C407201FB5044660
:1032F000054B0DF1100E0FCB0EE90F000EEB840401
:1033000054F8100C04B010BD981B0400F7B50F461C
:103310000646FFF7EBFF17230124162202218DF842
:1033200003308DF8073002AB1E448DF802208DF873
:1033300001108DF8004005468DF8051016F8080CB0
:1033400021468DF806208DF80440FDF757F82146F8
:1033500016F8040CFDF76CF80023AB606C602B676B
:10336000FCF7F8FF034BB0FBF3F04743EF6003B00B
:10337000F0BD00BF40420F00074A136823F0E0632E
:1033800023F0FF0313600123116803FA00F041F0FA
:10339000807108431060704700400340002307B568
:1033A0000D4A019352680D48C2F30B12ADF802208A
:1033B0000DF1020101AA006801F0E8F8019B3BB1A0
:1033C0004FF08052064B1A60BFF34F8FBFF36F8FE1
:1033D00003B05DF804FB00BF0040034088C4072031
:1033E00004ED00E010B5FCF7B5FF0121C4080C2086
:1033F000FDF704F803210C20FDF71AF84FF4001331
:10340000104A114913600223B4FBF3F0884214D828
:10341000116841EA03231360012001F0A5F80B4B6A
:10342000002218600221012000F0FAFF4FF4800210
:10343000074B1860074B1A6010BD0233B3F5807F4D
:10344000E2D1E9E7004003403F5DC60084C40720A5
:1034500088C4072000E100E0F7B5002407280546EE
:10346000ADF806401DD801F03BFF0228154E1CD1D7
:10347000154F23464FF0FF322146386801F0FAF825
:103480002846FFF779FF23464FF0FF320DF1060182
:10349000306801F0EFF8234622462146386800F0F4
:1034A000E1FFBDF8060003B0F0BD2846FFF764FF5A
:1034B00000230DF106011A46306801F0DBF8002800
:1034C000F6D0EEE788C4072084C40720026830B530
:1034D000D36913F0040310D002F1300301F110049A
:1034E00051F8045BA14243F8045BF9D1438A0133EC
:1034F000438221230120536030BD184630BDFFFFB9
:103500002DE9FF41264C450154F805806719D8F88C
:103510000C60D8F808303343D90716D5786801F025
:1035200080F9FB8908F1200198424FF0000388BF21
:10353000F88167191A46786801F028F858B3BB8AF1
:103540000133BB820423C8F8043040F202631E42F8
:1035500012D06719B86801F064F93B8A00229842DA
:1035600088BF388267196946B86801F01DF918B13B
:1035700069463846FFF7AAFFB20603D563199B696F
:1035800030469847330703D52C44E36930469847C3
:1035900004B0BDE8F081BB890133BB81D2E700BF35
:1035A00094C00720084B10B5D3F8C440A20402D53C
:1035B0000020FFF7A5FF630404D5BDE810400120FB
:1035C000FFF79EBF10BD00BF00C00F40F0B587B031
:1035D0006C460F4D074695E807008DE8070003AEDF
:1035E00095E8070086E807000C223146204624F0C3
:1035F000C7FD38B903CC386020687960B8603846B8
:1036000007B0F0BD95E8070084E80700E8E700BFD1
:10361000144002400022184B1A720278C2F30502CD
:1036200083F820204278C2F3050283F824208278B0
:10363000C2F3040283F82820C278C2F3020283F89E
:1036400030200279C2F3040283F82C204279C2F3BD
:10365000030283F83820C179827901F00F0142EA30
:103660000122417A9A87027A01F00F0142EA01228F
:103670009A8601221A727047004002401FB501214C
:103680000920FCF7BBFE01222F4B01A81A72FFF79D
:103690009DFFBDF80A3003F62603C3F30B030F2B7F
:1036A0001ED89DF8053003F03F033B2B18DC9DF836
:1036B000043003F03F033B2B12DC9DF8063003F08F
:1036C0001F03172B0CDCBDF80C30C3F30B03B3F551
:1036D000B77F05DA9DF8093003F00F030C2B2FDDBF
:1036E00001229DF8083001A862F304038DF8083028
:1036F0009DF8093062F3030340F2DA728DF8093065
:10370000BDF80A3062F30B03ADF80A309DF80730BC
:103710006FF302038DF807309DF806306FF3040352
:103720008DF806309DF805306FF305038DF80530F0
:103730009DF804306FF305038DF80430FFF76AFF3E
:1037400005B05DF804FB00BF0040024007B501A8CA
:1037500028F088FA01A823F047FD03B05DF804FBC8
:1037600070B505460E4614460CB12B6803B970BD02
:103770002268134208D06368984722682B6823EABE
:1037800002032B6023683360A468EDE7F8B50124D9
:1037900084400F4616461D4610D079B10C2024F007
:1037A00085FC58B14FF40012336880E890008360C4
:1037B0002B6830601C43024B2C601A60F8BD00BFC0
:1037C00000E100E01FB5184C184963686846009393
:1037D000A3680193636A0293A36A0393144B1A6864
:1037E000FFF7BEFF134B11491A6801A8FFF7B8FF96
:1037F000114B12491A6802A8FFF7B2FF104B0F498C
:103800001A6803A8FFF7ACFF009B0BB9019B13B12B
:103810004FF0FF33E360029B0BB9039B13B14FF0F2
:10382000FF33E36204B010BD808002408C80024010
:1038300090C407208CC4072098C40720AC800240A5
:1038400094C4072010B414460029064A0649074BC1
:1038500018BF1346064A18BF0A46214610BCFFF798
:1038600095BF00BF948002408CC407209080024026
:1038700090C4072008B501211D20FCF7BFFD0122DF
:10388000024B1A631A6BD207FCD508BD00400050EA
:103890004FF0FF3337B5B1F5805F01934AD2274B24
:1038A0001C69E50748D4264C2469E40744D4254C18
:1038B000E5686D0735D40325234CA5602561234DAC
:1038C0001D60002A2FD001AC5C6041F00044DC6038
:1038D00000249C6041F206041C61194C3AB320603C
:1038E00041F080610022E1606560A2604FF40862EF
:1038F00022611A6942F001021A61226942F0010252
:103900002261104A516A41F003015162D868C0F344
:103910000B000028FAD1536A23F00303536203B06B
:1039200030BDA568C4E7586041F00844CFE701AA5C
:103930002260D7E70120F2E70220F0E720410050A3
:1039400000410050000003400040005008000340C8
:103950002DE9F84344790546894690461E46089F5E
:103960001CB100242046BDE8F883002BF9D001F0FB
:10397000B7FC02282CD020222B682F61AE61AC75D9
:1039800085F8149085F815801A60FCF7E9FD4FF46E
:103990007A72002323F02AFA10F57A7641F10007B3
:1039A0000023E8681A46194600F064FE20B1AC7D99
:1039B000B4FA84F46409D5E7FCF7D2FD4FF47A72C7
:1039C000002323F013FA8F4208BF8642E8D2EEE7C5
:1039D00023464FF47A722146A86800F04BFE002877
:1039E000BFD0234622462146E86800F043FE20224D
:1039F0002B68AC7585F8149085F815802F61AE6141
:103A000021461A60E86823464FF47A7200F032FECD
:103A100018B1AC7DB4FA84F464090023A8681A468E
:103A2000194600F01FFD9DE741F00101FFF790BF2F
:103A30001FB5002404AB03F8014D01240094FFF7E7
:103A4000F3FF9DF80F0004B010BD01F0FE01FFF779
:103A50007FBF1FB504AC04F8013D0123009323464A
:103A6000FFF7F3FF04B010BD1FB5002204AB03F84D
:103A7000012D0092FFF7D8FF05B05DF804FBFFFFB2
:103A800038B50025044601604571012000F06CFD49
:103A90000322A0602946012000F0C2FC2368094AE5
:103AA000E060934203D10A232371204638BD064AC1
:103AB000934201D10B23F7E7044A93420CBF0C2336
:103AC0006323F1E700C0014000C0054000000A4048
:103AD00090F9043070B50B2B05460C46164634D0D1
:103AE0000C2B35D00A2B36D101210720FCF786FCA0
:103AF000B6F57A7F98BF4FF47A714FF06C0294BF9D
:103B0000714316492B68B4FBF1F19A6128226420B5
:103B100049084A43B2FBF0F21A613C2251430022A9
:103B2000B1FBF0F15961DA601A625A629A6240227E
:103B300001201A6095F90430094A590903F01F035E
:103B400000FA03F342F8213070BD01211320CDE7C4
:103B500001211A20CAE7002070BD00BFA086010025
:103B600000E100E0036830B55968024628294AD0D0
:103B70000BD810292CD0182932D008290AD1027D5F
:103B800002F0FE029A60996128E0402959D00DD8D0
:103B900038296DD0596891752021996110211960DB
:103BA000082199611968C906FCD425E0502951D033
:103BB0005829EFD181699B680B70202103689961B6
:103BC00010211960082199611968C806FCD413E016
:103BD000027D42F001029A6008229A61002030BD05
:103BE00020201469986108215CB998611020186040
:103BF00099611968C906FCD4137DDD0715D501202C
:103C000030BD527DBEE7007D10F0010002D02022C1
:103C10001A60E1E7116951B920229A6110221A60F5
:103C200008229A611A68D406FCD4022030BD946937
:103C3000013914F8015B9D609461116108229A6159
:103C400030BD202102699961012A4FF00402DFD8BA
:103C50009A61C1E79B68816904220B708369013313
:103C600083610369013B012B03610368D0D1EFE756
:103C7000017D5B6811F0010F937514BF01200220D4
:103C800030BDFFFF13B50446FFF76CFF80B1002382
:103C900002A941F8043DE06800F0B8FC019B3BB18B
:103CA0004FF08052034B1A60BFF34F8FBFF36F8FFB
:103CB00002B010BD04ED00E037B5044615468DF89E
:103CC000071001F00DFB022809D063699DF8072059
:103CD0001A701A7D5206FCD5012003B030BD0023B6
:103CE0002A460DF10701E06900F0BCFB0028F4D082
:103CF00063691B7D5B06EFD500230DF107011A46B2
:103D0000E06900F0B7FC0028E6D063699DF8072061
:103D10001A70E1E710B50446024B036000F0D0F9D9
:103D2000204610BDC81B040010B50446FFF7F2FF83
:103D300020462C2109F001FE204610BD10B5044696
:103D400001F0CEFA022807D1E06900F061FD18B158
:103D5000012001F06DF8F7E7012010BDF8B5064627
:103D600014460F4609B90020F8BD8369002BFAD02C
:103D700001F0B6FA022809D1002322463946B0697B
:103D800000F078FC003018BF0120F8BDFCF7E8FB1C
:103D90004FF47A72002323F029F80025044400230D
:103DA00039461A46B06900F065FC58B9FCF7D8FBF3
:103DB0004FF47A72002323F019F88D4208BF844231
:103DC000EDD2D0E70120F8BD802310B54469090188
:103DD0002373006AB0FBF1F022F080FB064B002257
:103DE00022F040FA22F078FC80B2030A2371032308
:103DF000C0B22070237310BD0000E03F002373B5F4
:103E0000426901938DF803309368044603F00E0372
:103E1000042B21D00C2B1FD0022B3FD1C06900F006
:103E200000FDE38C984203D9E06900F0FAFCE084DD
:103E30001026002501AA0DF10301E06900F0B4FC91
:103E400000282ED15DB34FF080521B4B1A60BFF398
:103E50004F8FBFF36F8F22E000F0C0FE0025A062FD
:103E600063691A7DD2070ED51B7801AA8DF803303D
:103E70000DF103010023A06900F088FB019B002BDA
:103E800018BF0125ECE7A06900F0CBFCA38C984299
:103E9000D8D9A06900F0C5FCA084D3E7137D02B097
:103EA00070BD63699DF803201A70019B002B18BF39
:103EB0000125013EC6D0BDE704ED00E038B504465B
:103EC0000D4600F0EDF8064B6561236000232046A7
:103ED000A361E3612362A384E384A36238BD00BFCE
:103EE000C81B040070B516461D46254A43690446A2
:103EF000934201622FD101210320FCF77FFA202297
:103F0000204B31461A604122636920461A721A7AA0
:103F100042F006021A72FFF757FFA26942B9082D54
:103F200028464FF00101B8BF082000F079FAA061DF
:103F3000E2693AB9049801210828B8BF082000F0C6
:103F40006FFAE061072263695A60A3690BB1E36904
:103F5000A3B9002070BD0C4A934205D1012118205D
:103F6000FCF74CFA8022CBE7084A9342F1D10121B9
:103F70001920FCF743FA4FF48072C1E7012070BDAD
:103F800000C0004000E100E00080094000C009409E
:103F90000120704770B50546164609B9002070BD6E
:103FA0004C1E14F8011F39B12B6832465B68284655
:103FB00098470028F5D1F1E7012070BD38B50446D7
:103FC0001546FFF7E7FF2A462046BDE8384001497D
:103FD000FFF7E0BF881504002DE9F74300240746EA
:103FE0000D469046994602AE06F8014D3B684A469A
:103FF0001B6831463846984778B19DF807200D2A4E
:1040000003D00A2A1CBF2A7001350134444509DA5D
:104010000A2AEBD100232B7001E0002CFAD103B067
:10402000BDE8F0830020F5E70EB433B5044601F097
:1040300057F9022806D100234FF0FF321946E068F5
:1040400000F018FB06AB0093009B059A218960687D
:10405000019328F0B5F92389054698420ADB20F040
:104060000F01103189B22181606825F0D9FC6060B0
:104070000028E9D14FF0FF3261682046FFF78AFF40
:1040800001F02EF9022805D10023E0681A461946EE
:1040900000F0E8F9284602B0BDE8304003B07047B0
:1040A000064B10B50360002304464360038103748C
:1040B000012000F059FAE060204610BDF81B040012
:1040C000044B10B504460360406808B123F0F6FFC6
:1040D000204610BDF81B040030BF704710B50C46D9
:1040E0000948FDF7E9FD2046FDF7E6FD0748FDF725
:1040F000E3FD0748FDF70DFE4FF08043AA221A7238
:1041000000221A7010BD00BF421C04006B1C04008A
:10411000C0C62D0008B50648FDF7CEFD0548FDF7E1
:10412000F8FD4FF08043AA221A7200221A7008BDCF
:104130000C1C0400C0C62D0010B5182001F0E2FAD6
:10414000044620B1002340F8043B01F0C1F92046A9
:1041500010BDFFFF2DE9F84306460D4699469046EF
:10416000089F00F02DFD346804EA0503B9F1000F43
:1041700013D1A3B9D7B1B8F1000F0CBF00214FF094
:104180008071B9F1000F01D041F080613A462943B6
:10419000301D00F029FF002408E09D42EAD1B8F16B
:1041A000000F02D024EA05033360002700F0A8FDC9
:1041B000D7B138B94FF08052114B1A60BFF34F8F0F
:1041C000BFF36F8F01F01CF9830104460AD401F09C
:1041D00023FA346805EA0403B9F1000F07D143B9A3
:1041E00001F02AFA24F07F442046BDE8F8839D427E
:1041F000F6D1B8F1000FF3D024EA05053560EFE7FA
:1042000004ED00E0F8B504460D4600F10C0600F0A0
:10421000D7FC236820692B4300252360B042216826
:1042200006D121EA0501216000F06AFD2068F8BD91
:1042300090E8880013F0806F23F07F4203D10A4298
:1042400004D13846EAE732EA010EFAD1DB0100D5A3
:10425000154341F0007100F013FFF2E770B5154609
:10426000026C0446866B42B905689DB9406801F04E
:104270008FF865600136A66370BD6DB9806823F064
:104280008EFFA368226C13446268A360934201D33B
:104290002368A3600020EDE7C06823F080FF236C53
:1042A000E2685B4221681A448A42E2603EBF62686B
:1042B0009B18E360022DEDD10EB1013EEAE73046D6
:1042C000D8E773B5856C0A46EB6BA96B01909942F0
:1042D0001AD201A9284695F84540FFF7BFFF64B2FE
:1042E000631C06460BD16B6A33B105F1240000F064
:1042F0008FFE002818BF0126304602B070BD013481
:1043000064B285F84540F7E70026F5E703461A6CE6
:1043100010B4084662B1D9685C681144A142D96002
:1043200028BF196810BC28BFD960D96823F037BFEF
:1043300010BC704770B5044601F06EF994F8455012
:1043400004F124066DB2002D14DCFF2384F84530FF
:1043500001F072F901F060F994F8445004F110068C
:104360006DB2002D19DCFF2384F84430BDE87040A5
:1043700001F062B9A36C4BB100212046FFF7A1FF09
:1043800008B100F0DDFE013D6DB2DCE7636A002B91
:10439000DBD0304600F03CFEF2E72369002BE2D090
:1043A000304600F035FE08B100F0CAFE013D6DB2A6
:1043B000D7E7FFFF38B504460D4601F02DF9206C14
:1043C000E36B22684343D1181B1A13446160E36016
:1043D0000021FF23A163A26084F8443084F84530B3
:1043E00095B9236963B104F1100000F011FE38B1F2
:1043F0004FF08052094B1A60BFF34F8FBFF36F8F9E
:1044000001F01AF9012038BD04F1100001F060F844
:1044100004F1240001F05CF8F2E700BF04ED00E0D5
:1044200070B5064648434C300D4601F06BF9044622
:1044300048B155B92060E663256401212046FFF7A5
:10444000B9FF0023A364204670BD00F14C03036054
:10445000F1E710B502220C460021FFF7E1FF00B1A1
:10446000846310BD2DE9FF470027044689461E4698
:10447000B846DFF8F0A0019201F0CEF8A26BE36B32
:104480009A4201D3022E21D1324649462046FFF7F7
:10449000E5FEA36C93B131462046FFF712FF38B119
:1044A0004FF080522F4B1A60BFF34F8FBFF36F8FC7
:1044B00001F0C2F8012004B0BDE8F087636A002B68
:1044C000EDD004F1240000F0A3FDE8E7019D1DB943
:1044D00001F0B2F80020EEE717B902A800F0FEFDE7
:1044E00001F0AAF800F06CFB01F096F894F8443063
:1044F000FF2B08BF84F8448094F84530FF2B08BF99
:1045000084F8458001F098F801A902A800F0F2FDB6
:1045100010BB01F081F8A76BE56B01F08DF8AF429D
:1045200014D1019904F1100000F04EFD2046FFF770
:1045300001FF00F0E5FB38B94FF08053CAF80030B6
:10454000BFF34F8FBFF36F8F012795E72046FFF72B
:10455000F1FE00F0D5FBF7E72046FFF7EBFE00F099
:10456000CFFBB7E704ED00E010B5024600210120C3
:10457000FFF756FF044638B1002343600360C36071
:104580001A461946FFF76EFF204610BD2DE9F0418F
:10459000044690461F46EFF311864FF0100383F355
:1045A0001188BFF36F8FBFF34F8F826BC36B9A423B
:1045B00001D3022F28D194F845503A466DB22046D7
:1045C000FFF74CFE6B1C1AD1A36C83B13946204611
:1045D000FFF777FE08B9012005E0B8F1000FFAD027
:1045E0000120C8F8000086F31188BDE8F081636AF5
:1045F000002BF0D004F1240000F00AFDEAE70135B9
:104600006DB284F84550E6E70020ECE738B50D467A
:10461000EFF311844FF0100282F31188BFF36F8F14
:10462000BFF34F8F816BC26B914221D290F845202E
:10463000013152B28163511C15D1826C62B10021EB
:10464000FFF73FFE08B9012003E0002DFBD0012059
:10465000286084F3118838BD426A002AF3D02430E0
:1046600000F0D6FCEEE7013252B280F84520EAE7CE
:104670000020EEE72DE9FF474FF0000A04460F4601
:1046800098465646DFF81C91019200F0C5FFA56BD5
:1046900055B339462046E668FFF738FEB8F1000FFB
:1046A0001BD12368013DA56313B900F0B5FE60601E
:1046B000236963B104F1100000F0AAFC38B14FF097
:1046C0008052384B1A60BFF34F8FBFF36F8F00F0EB
:1046D000B3FF012004B0BDE8F087636AE660002BF9
:1046E000F5D004F12400E7E7019D1DB900F0A4FF17
:1046F0002846EFE7BAF1000F02D102A800F0EEFC65
:1047000000F09AFF00F05CFA00F086FF94F8443065
:10471000FF2B08BF84F8446094F84530FF2B08BF96
:1047200084F8456000F088FF01A902A800F0E2FCCF
:1047300050BB00F071FFA56B00F07EFFF5B9236858
:1047400033B900F069FF606800F0DAFD00F074FF33
:10475000019904F1240000F037FC2046FFF7EAFD40
:1047600000F0CEFA38B94FF08053C9F80030BFF3EB
:104770004F8FBFF36F8F4FF0010A86E72046FFF798
:10478000D9FD00F0BDFAF6E72046FFF7D3FD00F0B3
:10479000B7FA00F041FFA56B00F04EFF002DEAD103
:1047A000A6E700BF04ED00E02DE9F0410746904682
:1047B000EFF311864FF0100383F31188BFF36F8F6F
:1047C000BFF34F8F846B0CB390F84450013C6DB233
:1047D000FFF79CFD6B1CBC6313D13B690BB9012037
:1047E0000BE007F1100000F013FC0028F7D0B8F13F
:1047F000000FF4D00120C8F8000086F31188BDE84E
:10480000F08101356DB287F84450E8E72046F4E7BF
:1048100010B5044600F000FFA46B00F00DFF204629
:1048200010BD806B7047002313B502AC44F8043D03
:104830000A462146FFF71EFF019802B010BD30B5B1
:104840000025436800F108015B688B42436004BFA8
:10485000C36843604368DC685B68994208BFC3680B
:10486000DA689442D564F7D1436030BD4FF080568A
:1048700008B5064C064D2368012B04D92E60BFF302
:104880004F8FBFF36F8FFFF727FCF4E7A8C4072013
:1048900004ED00E0064A13681968064B19B94FF099
:1048A000FF321A6070471268D268D2685268F8E71F
:1048B000A0C40720B4C50720F8B51B4B1B4E1D68CC
:1048C000044630680F46043000F033FE334640B9EA
:1048D00001203168164EC96A3268884022EA000217
:1048E0003260621C07D137B1196812480431BDE843
:1048F000F84000F0FBBD2C441A68A542546007D96B
:104900000D4A10681968BDE8F840043100F0FABD9E
:104910000A4A10681968043100F0F4FD084B1A685F
:10492000944238BF1C60F8BDE8C507209CC407202E
:1049300084C50720D4C50720A4C40720A0C407202D
:10494000B4C507202DE9F84F4FEA820A8046504649
:104950000D4699460B9E00F0D5FE0746002800F054
:104960009B80582000F0CEFE0446002800F0918085
:1049700052460763A521384623F036FC236BAAF183
:10498000040A9A442AF0070A6B1E04F13402073520
:10499000597802F8011B13F8011F09B1AB42F7D196
:1049A0000A9D4FF0000B092D28BF0925271DE56240
:1049B0006564384684F83BB0C4F848B000F093FD15
:1049C000C5F10A0504F1180000F08DFDC4F850B0DF
:1049D0002461A5616462C4F84CB084F854B04A46BE
:1049E0004146504600F0EEFD206006B1346000F014
:1049F00013FE304B304E1A68DFF8E48001321A6043
:104A00003568002D4BD134601B68012B1AD108EB9F
:104A10000500143500F05CFDC82DF8D1DFF8C49016
:104A2000264D484600F054FD284600F051FD24482C
:104A300000F04EFD234800F04BFD234BC3F80090DF
:104A4000224B1D600125224A224913680868013360
:104A50001360E26A05FA02F3034314200B6000FBC3
:104A60000280394600F042FD00F0E6FD1A4B1B685B
:104A700063B13368DA6AE36A9A4207D24FF0805230
:104A8000164B1A60BFF34F8FBFF36F8F2846BDE8F8
:104A9000F88F384600F045FE4FF0FF35F6E70E4B35
:104AA0001B68002BCED13368DA6AE36A9A4298BF5A
:104AB0003460C7E774C507209CC407209CC5072045
:104AC000BCC50720D4C50720A0C40720A4C4072064
:104AD00080C5072084C50720D0C5072004ED00E06D
:104AE000A8C4072088C5072038B5104B04461B68AA
:104AF000984215D000F090FD656900F09DFD0C4BCB
:104B00001B689D420ED00B4B1B689D420AD00A4B7E
:104B10009D4209D1A36A002B14BF0220032038BD97
:104B2000002038BD022038BD012038BD9CC40720BC
:104B3000A0C40720A4C40720D4C5072013B50024AF
:104B4000114B009401938022234610491048FFF72F
:104B5000F9FE012816D14FF0100383F31188BFF33B
:104B60006F8FBFF34F8F4FF0FF320A4B1A600A4B23
:104B700018600A4B1C6000F0EDFC02B0BDE810406C
:104B800000F0A8BD02B010BDB0C50720971C0400FE
:104B90006D480100B4C50720D0C50720E8C507202F
:104BA0004FF0100383F31188BFF36F8FBFF34F8F64
:104BB0000022024B1A6000F02DBD00BFD0C50720B7
:104BC000024A136801331360704700BF7CC5072099
:104BD000014B1868704700BFE8C50720014B1868F3
:104BE000704700BFE8C50720014B1868704700BF39
:104BF00074C507202DE9F84F364B1B68002B47D1B1
:104C0000354B1C6801341C605CB9344A344B116864
:104C100018681060334A1960136801331360FFF796
:104C200039FE314D4FF0000B2B68304F9C423ED384
:104C3000DFF8A880DFF8C490D8F80020126872BBB3
:104C40004FF0FF322A6032E006F1040A504600F0CD
:104C500070FCB16A19B106F1180000F06AFC01227B
:104C60004FF0140EF06AD9F8003002FA00F119433F
:104C70001F4BC9F800100EFB0030514600F036FC07
:104C80003868F16AC26A914228BF4FF0010BD3E73E
:104C9000184A4FF0000B13680133136011E0D8F885
:104CA0000020D268D66871688C42CDD229603A68FB
:104CB0000F4BD16A14224A439A58022A28BF4FF058
:104CC000010B0D4A1268002A18BF4FF0010B58461D
:104CD000BDE8F88F7CC50720E8C50720A0C40720E1
:104CE000A4C40720B8C50720B4C507209CC407206A
:104CF000A8C4072078C50720ECC5072084C5072075
:104D00002DE9F84300F088FC2A4B1A68013A1A6032
:104D10001C682CB1002400F08FFC2046BDE8F8830D
:104D2000254B1B68002BF5D0DFF8A490234FDFF84C
:104D3000A480D9F80030E3B90CB1FFF7ABFD204DEA
:104D40002C6844B101271F4EFFF754FF00B13760B4
:104D5000013CF9D12C601B4B1B68002BDAD04FF0C3
:104D60008052194B1A60BFF34F8FBFF36F8F01242E
:104D7000D1E7D9F80C300125DC68261D04F11800B4
:104D800000F0D7FB304600F0D4FB1420E26A39680B
:104D900005FA02F30B4300FB028031463B6000F052
:104DA000A5FB0A4BE26A1B68DB6A9A4224BF054BEB
:104DB0001D60BEE77CC5072074C5072084C5072099
:104DC00078C50720ECC5072004ED00E09CC407204F
:104DD000BCC50720A8C4072010B5FFF7F1FE124B91
:104DE00004681A686318A24217D29C4219D99A42E1
:104DF0002CBF00210121036019B10021981AFFF78F
:104E00005BFDFFF77DFF38B94FF08052074B1A600A
:104E1000BFF34F8FBFF36F8F10BD9C42E7D90121C5
:104E2000E9E70021E7E700BFE8C5072004ED00E05F
:104E300008B540B94FF08052084B1A60BFF34F8F4E
:104E4000BFF36F8F08BDFFF7BBFE0021FFF734FDF6
:104E5000FFF756FF0028EDD008BD00BF04ED00E0CD
:104E6000264B70B51A68264B12B101221A6070BD2C
:104E70001A6000F079FB234A234C1568A84204D934
:104E80002168CB6C5B1B0344CB64236810601B6BF5
:104E90001A68B2F1A53F0BD15A68B2F1A53F07D10C
:104EA0009A68B2F1A53F03D1DB68B3F1A53F04D006
:104EB000206821683431FFF711F9144B1B68B3FAED
:104EC00083F31420DBB2C3F11F0300FB03F210498C
:104ED0008D186E68083276680A44964200FB031308
:104EE00008BF72686E6008BF6A605B68DB68236039
:104EF00023685A6B074B5A6470BD00BF7CC50720FE
:104F0000ECC5072070C507209CC4072084C5072076
:104F1000A8C407200040024070B50446234E00F0AC
:104F20007BFB04B93468251D284600F002FB60B9FC
:104F30001421E06A1E4B41435B5833B901221D49DD
:104F400082400B6823EA02030B60A36A1BB104F1E1
:104F5000180000F0EEFA2946174D184800F0C6FA7E
:104F600000F06AFB2A682AB100F056FBFFF792FCBA
:104F700000F062FB33689C4216D12B6843B14FF0BE
:104F800080520F4B1A60BFF34F8FBFF36F8F70BD0E
:104F90000C4A0A4912680968914201D1336070BD18
:104FA000BDE87040FFF75CBF70BD00BF9CC4072028
:104FB000A8C4072084C50720D0C50720D4C5072072
:104FC00004ED00E074C5072010B50C46054B1968C8
:104FD000183100F097FA2046BDE810400121FFF794
:104FE0006BBC00BF9CC4072010B51446074B41F0B2
:104FF00000411A6891611968183100F077FA20466B
:10500000BDE810400121FFF757BC00BF9CC407203A
:1050100038B5C368DC6804F11805284600F089FA41
:10502000114B1B68E3B9251D284600F082FA0123C5
:105030000E49E26A08689340034314200B60294636
:105040000B4B00FB023000F051FA0A4BE26A1B687E
:10505000DB6A9A4285BF0120074B0020186038BDEB
:1050600029460648EFE700BF7CC5072084C5072016
:10507000A8C407209CC40720ECC50720BCC5072096
:1050800070B50124C56841F0004101602E1D00F09B
:1050900050FA304600F04DFA0C49EA6A086804FA02
:1050A00002F3034314200B60094B314600FB02302E
:1050B00000F01CFA074BEA6A1B68DB6A9A4283BF5E
:1050C000054B20461C60002070BD00BF84C5072032
:1050D000A8C407209CC40720ECC50720034B1B680D
:1050E0000360034B1B684360704700BFB8C50720CF
:1050F000E8C5072038B50D46044600F08DFA0E4B82
:105100002A681868531C10D00C4B21681B68994200
:10511000636801D098420DD2C11A8A420AD91B1A7B
:1051200013442B602046FFF7D9FF002400F084FAD7
:10513000204638BD0124F9E7E8C50720B8C5072097
:105140000122014B1A607047ECC507202DE9F041A0
:105150000C4617469846064658BB1B4B1D6805F182
:1051600034036360EB6A256023612B6BE361EB6BB7
:10517000A360237B032B07D1FFF722FDAB6A0BB1A2
:1051800002232373FFF7BCFD6B6CB8F1050F63615D
:10519000EB6CA3610FD084F80C808FB1296B0A46A9
:1051A000531A12F8010BA528FAD09B082384BDE8F6
:1051B000F0810546D3E73046FFF796FC2073ECE715
:1051C0002784BDE8F08100BF9CC407202DE9F84F7B
:1051D0000D6881460C4693461DB300254FF0240A06
:1051E0004B6801F108075B68BB424B6004BFCB68AA
:1051F0004B604B68D3F80C8063680AFB05915B68D1
:1052000001229F42636008BFE36805F1010508BF02
:1052100063606368DE685B463046FFF797FFB04522
:10522000EAD12846BDE8F88F2DE9F84306469046B6
:10523000FFF7C6FC1D4B1B688B4234D80025242782
:105240002C46DFF8789005F1B40107FB04600122D9
:105250004944FFF7BBFF143D15F1C80F0444F2D1D8
:10526000134B0222196807FB0460FFF7AFFF114BD5
:1052700004441968022207FB0460FFF7A7FF0444F7
:1052800007FB046003220C49FFF7A0FF0444B8F1B8
:10529000000F03D000F068F9C8F80000FFF730FDF8
:1052A0002046BDE8F8830024F8E700BF74C5072056
:1052B000A0C40720A4C40720D4C50720A8C4072081
:1052C00008B9064B1868026B1346981A13F8011BAD
:1052D000A529FAD0C0F38F00704700BF9CC40720F7
:1052E000054B1B6833B1054B1B68002B0CBF02201C
:1052F0000020704701207047D0C507207CC50720DB
:105300002DE9F0410446002839D01E4DC36A2A68B1
:10531000D26A934233D2142782691B4E002AA8BF57
:105320002A6807FB0363A2BFD26AC2F10A02826144
:1053300042699A4220D100F10408404600F0F9F891
:10534000124A48B9E06A4743F3592BB9012113685F
:10535000814023EA010313602B681168D86A012396
:1053600083400B4313601423E062414603FB00605B
:10537000BDE8F04100F0BAB82B68DB6AC362BDE853
:10538000F08100BF9CC40720A8C4072084C5072063
:10539000F8B5044608B90020F8BD836CC16A426CB8
:1053A000013B91428364F6D0002BF4D1051D2846C1
:1053B00000F0BFF8104E114A50B91421E76A794342
:1053C00073582BB901201368B84023EA0003136017
:1053D000636CC3F10A01E362A1610124116804FA5C
:1053E00003F0084310601420294600FB036000F01E
:1053F0007DF82046F8BD00BFA8C4072084C507205B
:10540000044B1A6890691A681B68DB6AC3F10A03C7
:10541000936170479CC40720044B1A681AB119683D
:105420008A6C01328A641868704700BF9CC40720E8
:1054300038B5FFF7C5FBB424124D635913B12819D1
:10544000FFF7FDF9143C14F1140FF6D10E4B1A6856
:10545000126812B11868FFF7F2F90C4B1A6812685B
:1054600012B11868FFF7EBF9094803680BB1FFF7B1
:10547000E6F90022074B1A6000F080F8BDE83840DA
:10548000FFF73EBCA8C40720A0C40720A4C407207F
:10549000D4C5072070C5072010B500F065F8064B8D
:1054A000064A196829B119681468CB6C1B1B0344A0
:1054B000CB64106010BD00BF9CC4072070C50720DE
:1054C00008B500F051F8014B186008BD70C5072001
:1054D00000F1080343604FF0FF32C3600361002313
:1054E00082600360704700230361704743689A68D5
:1054F0004B608A609A685160996003680861013363
:10550000036070470A6830B5531C0AD103695A68B2
:105510004A6091608B6059600368086101330360E1
:1055200030BD00F108035C682568AA42EFD323462A
:10553000F9E74168826803698A6082685160596846
:10554000884208BF5A60002202611868013818605A
:105550007047FFFF08B5FBF703F8024BC3E90001F2
:1055600008BD00BFF0C5072008B5FAF7F9FF024BE8
:105570001B68C01A08BD00BFF0C5072008B5FAF7C0
:10558000EFFF024BC3E9000108BD00BFF0C50720D3
:105590004FF0100383F31188BFF36F8FBFF34F8F6A
:1055A000FEE7FFFF06480068006880F3088862B6DF
:1055B00061B6BFF34F8FBFF36F8F00DF00BF0000F6
:1055C00008ED00E04FF0807340F8043C054B21F0FB
:1055D000010140F8081C40F80C3C40F8202C4038F1
:1055E000704700BF91550100FFFFFFFFFFFFFFFF66
:1055F000074B19680868B0E8F00F80F30988BFF31B
:105600006F8F4FF0000080F311884EF00D0E704741
:105610009CC407207047FFFF4FF0100383F31188ED
:10562000BFF36F8FBFF34F8F024A136801331360CC
:10563000704700BFF8C50720034A1368013B136099
:105640000BB983F311887047F8C50720FFFFFFFFF0
:10565000EFF30980BFF36F8F0D4B1A6820E9F00F4D
:1056600010602DE908404FF0100080F31188FFF71B
:10567000F7FB4FF0000080F31188BDE8084019687F
:105680000868B0E8F00F80F30988BFF36F8F7047A8
:105690009CC4072008B54FF0100383F31188BFF3B3
:1056A0006F8FBFF34F8FFFF7A5FA18B14FF08052FD
:1056B000024B1A60002383F3118808BD04ED00E05B
:1056C0004BF67F32024B1A60072243F8042C7047D6
:1056D00014E000E008B5094B1A6842F478021A6039
:1056E0001A6842F078421A60FFF7EAFF0022044B82
:1056F0001A60FFF757FFFFF74BFF00BF20ED00E0F8
:10570000F8C5072010B50446FFF75AFA204622F0E4
:10571000CDFC0446FFF7F4FA0CB9FEF7FBFC20467B
:1057200010BD10B5044640B1FFF74AFA204622F0FA
:10573000C5FCBDE81040FFF7E3BA10BD242310B547
:105740004FF6FF7403FB0101884200D110BD43787E
:105750002BB1038C1344A34228BF23460384243077
:10576000F2E7FFFF002337B502A840F8043D0C4BD9
:1057700004215B68984705460A4B019A1C6804217E
:10578000141B1A6008482246FFF7D8FF2246022160
:105790000648FFF7D3FF281C18BF012003B030BD17
:1057A000FCC507202CC7072012C60720C6C6072045
:1057B00008B50B4B197803788B420A4B0BBF1A883C
:1057C0009A880132013214BF9A801A80064B817088
:1057D000DB6820219847003018BF012008BD00BFBA
:1057E000D4C00720A2C60720FCC507200A4B0278B8
:1057F0001B789A42094B0BBFDA881A8901320132B1
:105800000CBFDA801A810379C3F3C202073262F354
:10581000C5030371FFF7CCBFD4C00720A2C6072081
:10582000002210B5064B13F822409100844201D1AA
:10583000581810BD0132042AF5D1002010BD00BF58
:105840001BC7072070B1C3780133DBB2FF2BC370D5
:1058500008D100230448C118CA7804335208102B19
:10586000CA70F8D1704700BF1BC707202422034627
:1058700002FB0101024630B591420FD104460025DA
:105880009A4211D01979C1F3C200198C41EA004142
:10589000A94284BF1C460D462433F1E71446243246
:1058A00012F8235C002DE7D1204630BD38B5044600
:1058B000C90001F10805FFF755FF1C4B22781B7842
:1058C0009A4224D102211A48FFF7D0FF0023024652
:1058D00080F8203080F82130234690F8231080F89B
:1058E000225021F07F01C5F306250D4380F8235097
:1058F00004F1200153F8044B8B4242F8044BF9D1D8
:105900000C4A0379127862F3C503037138BD042190
:105910000948FFF7ABFFE378002BD7D190F823308D
:10592000042543F0800380F82330CFE7D4C007205C
:10593000C6C60720DCC0072012C6072008B5FFF73F
:105940006FFF0346D8B9FFF76BFF0346B8B90D4A9E
:10595000D378D179D07A8B4296BF1946131D13465E
:10596000814294BF0846084BD17B084A814238BF28
:105970001346002206491A60CA7A0132CA721846D2
:1059800008BD00BF1BC7072023C7072027C7072064
:10599000A2C607202DE9F0474FF0240805460C4623
:1059A000002708FB0218DFF85C91DFF85CA1A04536
:1059B00001D1BDE8F08794F92330002B29DACDB16D
:1059C0002B786278934209D168782178884205D192
:1059D00024220021204622F007FC69E0E97849B141
:1059E0006978914206D122789A4203D1AA79A379A3
:1059F0009A42EDD094F8232094F82230218C02F0C2
:105A00007F0243EA0223994252DB2046FFF7D0FE91
:105A1000DEE76378002B4BD0002D32D02A7902F0DC
:105A2000C002C02A2BD1227869788A4202D1287814
:105A30009842CDD0E678A878864208D1994206D11E
:105A400029788A4203D1A179AA799142C0D0A97854
:105A5000E278914215D16A789A4212D121782A7857
:105A600091420ED1A179AA7991420AD1237984F881
:105A7000207067F3C50384F82170237118E0002AB1
:105A8000E5D194F8231094F82220208C01F07F01B6
:105A900042EA012290420BDB227984F82070C2F3A3
:105AA000C201CEB284F8217026B12046FFF79EFED7
:105AB00024347CE702F0C002C02A20D0207899F874
:105AC000002090421BD1E278934218D0BAB1032251
:105AD0006379E17062F3071363712046FFF786FE76
